:040000003FEF00F0DE
:10000800FACF34F0FBCF35F0E1CF36F0E2CF37F05E
:10001800D9CF38F0DACF39F0F3CF3AF0F4CF3BF05C
:1000280019EEBCF0F0B6F0A003D05DEC49F012D0A8
:10003800F0B8F0A203D059EC49F00CD0F2B6F2A017
:1000480003D04CEC49F006D0F2BC9DA003D09EB082
:1000580066EC48F03BC0F4FF3AC0F3FF39C0DAFF62
:1000680038C0D9FF37C0E2FF36C0E1FF35C0FBFF1B
:1000780034C0FAFF110016EEFEF048EF35F06AECD6
:1000880049F0020103B162EF06F0D9C1D9FFDAC124
:10009800DAFFDF500001E16FE139E832070BE806CB
:1000A800D8A4D8D002011D51D8A4D4D00101DB05B1
:1000B800000128D0E751DA6FDB6BDA1FDB1FDA4B60
:1000C800DB2B0101DB510001DC6FDD6BDA51DC2732
:1000D800DB51DD23DC510101D92500017D6FDD51A4
:1000E8000101DA2100017E6F420E7F6F020E806FE0
:1000F80064EC44F0100E0001E76503D0100EE75FD2
:1001080002D0000EE76FE751D8A4D4D7420EC76FCC
:10011800020EC86FD9C1C9F0DAC1CAF00101DB51BA
:10012800FC0F0001CB6FA9EC3EF0C7C0EAF0C8C0D5
:10013800EBF0C9C0ECF0CAC0EDF0D9C16BF0DAC180
:100148006CF0DBC16DF084EC40F06BC0E2F06CC089
:10015800E3F06DC0E4F06EC0E5F00001EA51E21989
:100168000AE1EB51E31907E1EC51E41904E1ED511F
:10017800E519D8B411D0020102510F0B050AD8B401
:1001880008D002510F0B030AD8A41200F151D8B4B9
:100198001200FDEC44F01200020102510F0B030A99
:1001A800D8A403D0E351B8EC46F0D9C1EEF0DAC1D7
:1001B800EFF0000120EE07F0EE51D926EF51DA22D8
:1001C800DECF1EF2DECF1FF2DECF20F2DECF21F22D
:1001D80020EE0CF0EE51D926EF51DA22DF500F0B4A
:1001E800A6EC43F0000120EE0BF0EE51D926EF51BA
:1001F800DA22DF38070B606F20EE0BF0EE51D926BC
:10020800EF51DA22DF500F0BD4EC47F0EEC0A6F026
:10021800EFC0A7F00101DB518FEC21F0EEC091F0A7
:10022800EFC092F081EC3BF0000EE66E3AEC2CF059
:10023800000E0201066F000E076F000E086F000E19
:10024800096F000E0A6F000E0B6F000E0C6F000E88
:100258000D6F12000001E139E832070B030AD8B428
:1002680007D0E139E832070B050AD8A45FEF06F09A
:10027800000E0201A76FD9C1F1F0DAC1F2F0020E47
:100288001219D8A410D2000120EE01F0F151D9269C
:10029800F251DA2202016251DE1809E16351DE18D7
:1002A80006E16451DE1803E16551DE18D8A4FBD1DC
:1002B80004A5F9D1F1C060F0F2C061F006EC3CF0A1
:1002C8000009D8A408D002010251F00B0909026FF5
:1002D80086EC3CF01200000120EE06F0F151D92620
:1002E800F251DA22DECFDAF0DDCFDBF0DAC06BF0E4
:1002F800DBC06CF06D6B6E6B0101DB51FC0F000114
:100308006F6F490E706F010E716F010E1BEC32F0AA
:10031800EF0E0001606F050E616F570E626F010EE0
:10032800636F000E656F100E646F6CEC3FF0FF0E8C
:100338000001606F050E616FD9C162F0DAC163F028
:10034800FC0E0101DB250001646F656BFF0E652360
:100358006CEC3FF0660E0001B96F020EBA6F570ED3
:10036800BB6F010EBC6FEF0EBD6F050EBE6F0101B6
:10037800DB510C0F0001BF6FF8EC10F0EA0E000122
:10038800606F000E616F570E626F010E636F000E93
:10039800656F040E646F6CEC3FF0D9C16BF0DAC185
:1003A8006CF0DBC16DF084EC40F06BC0E2F06CC027
:1003B800E3F06DC0E4F06EC0E5F00001E251EA1927
:1003C8000AE1E351EB1907E1E451EC1904E1E551C5
:1003D800ED19D8B408D002010251F00B0909026FD7
:1003E80086EC3CF01200000120EE06F0F151D9260F
:1003F800F251DA2202010E51DE5C0F51DE58D8A00C
:1004080050D0000120EE06F0F151D926F251DA223F
:10041800DECFDAF0DDCFDBF022EE0EF0DECFDCF05F
:10042800DDCFDDF0DC1FDD1FDC4BDD2BDA51DC27F7
:10043800DB51DD23DC5102019E5D0001DD5102012B
:100448009F59D8B022D0010104510511D8B415D054
:10045800000E0001606F000E616F000E626F050EE6
:10046800636F01D80AD00500FA6E01010451FD6ED0
:100478000551FE6EFF6AFA50120002010251F00B9C
:100488000909026F86EC3CF01200000120EE06F02C
:10049800F151D926F251DA22DECF0EF2DDCF0FF27A
:1004A8003AD0000120EE06F0F151D926F251DA22B5
:1004B800DE50DE10D8A40DD002010E290AE10F2962
:1004C800D8A407D0000E0F6F000E0E6F104B112B23
:1004D80022D0010104510511D8B415D0000E000135
:1004E800606F000E616F000E626F050E636F01D8BA
:1004F8000AD00500FA6E01010451FD6E0551FE6E29
:10050800FF6AFA50120002010251F00B0909026F4A
:1005180086EC3CF0120002010E2929E10F2927E19F
:10052800102925E11129D8A422D00101045105116F
:10053800D8B415D0000E0001606F000E616F000E78
:10054800626F050E636F01D80AD00500FA6E0101CB
:100558000451FD6E0551FE6EFF6AFA501200020149
:100568000251F00B0909026F86EC3CF012000201FF
:1005780002510F0B080AD8A408D0E451B8EC46F091
:100588000201E551B8EC46F009D0020102510F0B07
:10059800030AD8A403D0E551B8EC46F0080E0101CF
:1005A800D925D96F000EDA21DA6FDB510001DA6F35
:1005B800DB6B20EE05F0F151D926F251DA22DF503B
:1005C8000F0BDC6FDD6B0C0EDC27000EDD23DA5120
:1005D800DC1904E1DB51DD19D8B437D0D9C1D9FF12
:1005E800DAC1DAFFDF50DF6F0101D94BDA2BDB51BB
:1005F800F40F0001F06F190EE66FD9C191F0DAC15E
:1006080092F0F005936F010E946F0EC295F00FC231
:1006180096F010C297F011C298F0760E996F020EFC
:100628009A6FE6C09BF0EF0E9C6F050E9D6F010E52
:100638009E6FE6EC25F0FF0E0101D9250001E86F59
:10064800FF0E0101DA21000105D0000EF06F000E47
:10065800E86F000EE96F020103830291029302958D
:100668000297010104510511D8B415D0E8C060F013
:10067800E9C061F0F0C062F0010E0001636F01D8BB
:100688000AD00500FA6E01010451FD6E0551FE6E97
:10069800FF6AFA50120002010251F00B0909026FB9
:1006A80086EC3CF01200000120EE01F0F151D92651
:1006B800F251DA2202011E51DE180AE11F51DE183A
:1006C80007E12051DE1804E12151DE18D8B40ED01C
:1006D80047EC3CF0020E02011219D8A41200025194
:1006E800F00B0909026F86EC3CF01200000120EEC5
:1006F80006F0F151D926F251DA22DECFDAF0DDCF59
:10070800DBF0DAC06BF0DBC06CF06D6B6E6B010177
:10071800DB51FC0F00016F6F490E706F000E716F97
:10072800010E1BEC32F0EF0E0001606F050E616FD9
:10073800570E626F010E636F000E656F100E646FC7
:100748006CEC3FF0FF0E0001606F050E616FD9C1C0
:1007580062F0DAC163F0FC0E0101DB250001646F71
:10076800656BFF0E65236CEC3FF0220E0001B96F3C
:10077800020EBA6F570EBB6F010EBC6FEF0EBD6F46
:10078800050EBE6F0101DB510C0F0001BF6FF8ECC5
:1007980010F0EA0E0001606F000E616F570E626F75
:1007A800010E636F000E656F040E646F6CEC3FF012
:1007B800D9C16BF0DAC16CF0DBC16DF084EC40F0AC
:1007C8006BC0E2F06CC0E3F06DC0E4F06EC0E5F021
:1007D8000001E251EA190AE1E351EB1907E1E4519A
:1007E800EC1904E1E551ED19D8B40ED047EC3CF012
:1007F800020E02011219D8A412000251F00B0909C5
:10080800026F86EC3CF01200000120EE06F0F15178
:10081800D926F251DA2202010A51DE5C0B51DE5868
:10082800D8A05DD0000120EE06F0F151D926F25192
:10083800DA22DECFDAF0DDCFDBF022EE0AF0DECF0F
:10084800DCF0DDCFDDF0DC1FDD1FDC4BDD2BDA510A
:10085800DC27DB51DD23DC5102019C5D0001DD5109
:1008680002019D59D8B02FD00091029102930295B0
:100878000297010104510511D8B417D00201009B59
:10088800000E0001606F000E616F000E626F000EB7
:10089800636F01D80AD00500FA6E01010451FD6E9C
:1008A8000551FE6EFF6AFA50120002010393048399
:1008B800020E1219D8A412000251F00B0909026F96
:1008C80086EC3CF01200000120EE06F0F151D9262A
:1008D800F251DA22DECF0AF2DDCF0BF22ED0000180
:1008E80020EE06F0F151D926F251DA22DE50DE1060
:1008F800D8A415D002010A2912E10B29D8A40FD0D7
:10090800000120EE06F0F151D926F251DA22DECFAD
:100918000AF2DDCF0BF202010C4B0D2B0ED047EC87
:100928003CF0020E02011219D8A412000251F00B79
:100938000909026F86EC3CF0120002010A2913E152
:100948000B2911E10C290FE10D29D8A40CD004833F
:10095800020E1219D8A412000251F00B0909026FF5
:1009680086EC3CF01200020102510F0B030AD8A4D6
:1009780003D0E551B8EC46F0010E0201D86FF1C082
:1009880060F0F2C061F0FAEC3FF0000120EE05F0F3
:10099800F151D926F251DA22DF500F0B0009D8B4F1
:1009A80016D0080EF125B06F000EF221B16F20EEBF
:1009B80005F0F151D926F251DA22DF500F0BB26F50
:1009C800A7EC17F0B0C0D9F1B1C0DAF107D0080E22
:1009D8000101D925D96F000EDA21DA6F0101DB5147
:1009E8000001DA6FDB6B20EE05F0F151D926F251E8
:1009F800DA22DF500F0BDC6FDD6B0C0EDC27000EEC
:100A0800DD23DA51DC1904E1DB51DD19D8B498D0C3
:100A1800D9C1D9FFDAC1DAFFDF50DF6F0101D94B45
:100A2800DA2B000120EE05F0F151D926F251DA2235
:100A3800DF500F0B00080101DB25F40F0001F06FF8
:100A480020EE05F0F151D926F251DA22DF500F0BD2
:100A5800190FE66FDF51D8B428D0D9C191F0DAC1A7
:100A680092F0F005936F010E946F0AC295F00BC2D5
:100A780096F00CC297F00DC298F0320E996F020EE4
:100A88009A6FE6C09BF0EF0E9C6F050E9D6F000EEF
:100A98009E6FE6EC25F0FF0E0101D9250001E86FF5
:100AA800FF0E0101DA21000150D00101DB510001E4
:100AB800DA6FDB6B20EE05F0F151D926F251DA221C
:100AC800DF500F0BDC6FDD6B0D0EDC27000EDD2316
:100AD800DA51DC5DDD51800ADE6FDB51800ADE59B8
:100AE800D8B02BD0D9C191F0DAC192F0F005936F4C
:100AF800010E946F0AC295F00BC296F00CC297F0E3
:100B08000DC298F0220E996F020E9A6FE6C09BF004
:100B1800EF0E9C6F050E9D6F000E9E6FE6EC25F0A4
:100B2800D9C1B0F0DAC1B1F00001F005B26FA7EC9D
:100B380017F0B0C0D9F1B1C0DAF1000E000101D050
:100B4800000EF06F000EE86F000EE96F010E020153
:100B5800D86F000ED16F000ED06F000EEE6F0099A7
:100B6800038300A155D0000120EE05F0F151D926EC
:100B7800F251DA22DFAA49D00201009102910293D0
:100B880002950297010104510511D8B417D002014A
:100B9800009BE8C060F0E9C061F0F0C062F0010EAF
:100BA8000001636F01D80AD00500FA6E01010451F3
:100BB800FD6E0551FE6EFF6AFA50120002010393A2
:100BC80002BB00BB6CD000B302D000A768D0010EF6
:100BD8000001AF6FE00EB06F000EB16F0201ED5172
:100BE80070EC2DF00009D8A40DD0000E0001D36FD1
:100BF800000ED46F000ED56F000ED66F000E21ECDC
:100C080036F048D0ACEC26F04AD001EC3DF047D0A5
:100C18000291029302950297010104510511D8B47B
:100C280017D00201009BE8C060F0E9C061F0F0C095
:100C380062F0010E0001636F01D80AD00500FA6E58
:100C480001010451FD6E0551FE6EFF6AFA50120053
:100C5800020102BB00BB23D000B302D000A71FD003
:100C6800010E0001AF6FE00EB06F000EB16F020110
:100C7800ED5170EC2DF00009D8A40FD0000E000142
:100C8800D36F000ED46F000ED56F000ED66F000E16
:100C980021EC36F00201009702D0ACEC26F0020EEF
:100CA80002011219D8A412000251F00B0909026FAF
:100CB80086EC3CF0120047EC3CF0120001010451B4
:100CC8000511D8B4120067EC49F00001DA6FDAB701
:100CD80014D0D9C160F0DAC161F0DBC162F0030E53
:100CE800636F01D812000500FA6E01010451FD6E10
:100CF8000551FE6EFF6AFA501200D9C160F0DAC1E0
:100D080061F0DBC162F0020E0001636F01D81200CE
:100D18000500FA6E01010451FD6E0551FE6EFF6A71
:100D2800FA501200020103B1A2D3000E0001D16FE4
:100D3800000ED26F000ED36F000ED46F000ED56F69
:100D4800DE69DF69E069E169000E0201F16F0251B5
:100D5800F00B0209026FDAC2E2F000A5BAD017510F
:100D6800010D490EF324F66EFF0EF420F76EF86AB3
:100D7800000EF8220800F5CFBDF098510001BD25FE
:100D8800BE6F000EBDBFFF0E020199210001BF6FAB
:100D9800C06BC16B0C0ED890BE37BF37C037C13798
:100DA800E82EF9D7BEC060F0BFC061F0C0C062F0E5
:100DB800C1C063F07D0E646F000E656F000E666F34
:100DC800000E676FC4EC3BF060C06DF061C06EF060
:100DD80062C06FF063C070F00201E25162EC43F050
:100DE80002011C51010D490EF324F66EFF0EF4208A
:100DF800F76EF86A000EF8220800F5CFBDF09A5198
:100E08000001BD25BE6F000EBDBFFF0E02019B2174
:100E18000001BF6FC06BC16B0C0ED890BE37BF37D7
:100E2800C037C137E82EF9D7BEC060F0BFC061F047
:100E3800C0C062F0C1C063F07D0E646F000E656FC4
:100E4800000E666F000E676FC4EC3BF060C06DF07B
:100E580061C06EF062C06FF063C070F00201E351D0
:100E680062EC43F00201E2514BEC39F00201E3512C
:100E78004BEC39F0DBC29AF0DCC29BF000019C6BB2
:100E88009D6BD60E9E6F0B0E9F6F000EA06F000E0F
:100E9800A16FB1EC40F0FF0E00019A25D66FFF0E4E
:100EA8009B21D76FFF0E9C21D86FFF0E9D21D96F14
:100EB800D6C09AF0D7C09BF0D8C09CF0D9C09DF09E
:100EC800BBC09EF0BCC09FF0A06BA16BB1EC40F022
:100ED800D7D002011751010D490EF324F66EFF0E0B
:100EE800F420F76EF86A000EF8220800F5CFBDF07E
:100EF80094510001BD25BE6F000EBDBFFF0E02015B
:100F080095210001BF6FC06BC16B0C0ED890BE3726
:100F1800BF37C037C137E82EF9D7BEC060F0BFC0B1
:100F280061F0C0C062F0C1C063F07D0E646F000E56
:100F3800656F000E666F000E676FC4EC3BF060C013
:100F48006DF061C06EF062C06FF063C070F00201B6
:100F5800E45162EC43F002011C51010D490EF324E7
:100F6800F66EFF0EF420F76EF86A000EF8220800FD
:100F7800F5CFBDF096510001BD25BE6F000EBDBF77
:100F8800FF0E020197210001BF6FC06BC16B0C0EF1
:100F9800D890BE37BF37C037C137E82EF9D7BEC0A3
:100FA80060F0BFC061F0C0C062F0C1C063F07D0EE8
:100FB800646F000E656F000E666F000E676FC4ECFD
:100FC8003BF060C06DF061C06EF062C06FF063C04E
:100FD80070F00201E55162EC43F00201E4514BEC80
:100FE80039F002011251D8A403D0E5514BEC39F085
:100FF8000001E2510E0D060EF326000EF422000E3B
:10100800F324D96E040EF420DA6EDECFBDF0DDCF06
:10101800BEF0BD51BF6FBE51C06FC16BC26B010E38
:10102800BF259A6F000EC0219B6F000EC1219C6FD7
:10103800000EC2219D6FDBC29EF0DCC29FF0A06B48
:10104800A16BB1EC40F0FF0E00019A25D66FFF0EA0
:101058009B21D76FFF0E9C21D86FFF0E9D21D96F62
:10106800D6C09AF0D7C09BF0D8C09CF0D9C09DF0EC
:10107800BBC09EF0BCC09FF0A06BA16BB1EC40F070
:101088000001E2510E0D080EF326000EF422000EA8
:10109800F324D96E040EF420DA6E9AC0DEFF9BC0EA
:1010A800DEFF9CC0DEFF9DC0DEFF0201E9513EEC81
:1010B80046F00009D8B48AD00201E951B8EC46F0EC
:1010C8000201E95107EC44F091C0DAF092C0DBF07C
:1010D80093C0DCF094C0DDF00001DD5108E11F0E83
:1010E800DA5DAC0EDB59DF0EDC59D8A024D0DAC0AB
:1010F800BDF0DBC0BEF0DCC0BFF0DDC0C0F00D0E3F
:1011080005D0D890C033BF33BE33BD33E82EF9D7EE
:10111800BDC09AF0BEC09BF0BFC09CF0C0C09DF09F
:101128007D0E9E6F000E9F6F000EA06F000EA16FC8
:10113800B1EC40F01DD0DAC09AF0DBC09BF0DCC007
:101148009CF0DDC09DF07D0E00019E6F000E9F6F2C
:10115800000EA06F000EA16FB1EC40F00D0E06D08E
:101168000001D8909D339C339B339A33E82EF8D7EF
:101178009AC0C9F09BC0CAF09CC0CBF09DC0CCF00F
:10118800C9C0BDF0CAC0BEF0CBC0BFF0CCC0C0F073
:101198000001BD1FBE1FBF1FC01FBD2B000EBE23F9
:1011A800BF23C0230201C8510001BD25D26F02012F
:1011B800C9510001BE21D36F0201CA510001BF21EC
:1011C800D46F0201CB510001C021D56F000E000180
:1011D800E26F0F0EE26501D0D4D0E2510E0D040E7D
:1011E800F326000EF422000EF324D96E040EF42028
:1011F800DA6EDE04D8A4C3D0E2510E0D080EF32631
:10120800000EF422000EF324D96E040EF420DA6ED8
:10121800DE50DE10DE10DE10D8B4B1D0E25102018B
:10122800DA19D8B46DD00001E2510E0D080EF3267C
:10123800000EF422000EF324D96E040EF420DA6EA8
:10124800DE50D25DDE50D359DE50D459DE50D55928
:10125800D8B046D0E2510E0D080EF326000EF42247
:10126800000EF324D96E040EF420DA6EDECFBDF042
:10127800DECFBEF0DECFBFF0DECFC0F0D2C0C1F00F
:10128800D3C0C2F0D4C0C3F0D5C0C4F0C11FC21FC0
:10129800C31FC41FC12B000EC223C323C423BD51C7
:1012A800C125C56FBE51C221C66FBF51C321C76FCB
:1012B800C051C421C86FE2510E0D080EF326000E6E
:1012C800F422000EF324D96E040EF420DA6EC5C0A1
:1012D800DEFFC6C0DEFFC7C0DEFFC8C0DEFF10D01D
:1012E800E2510E0D080EF326000EF422000EF32430
:1012F800D96E040EF420DA6EDE6ADE6ADE6ADD6A12
:101308000001E2510E0D080EF326000EF422000E25
:10131800F324D96E040EF420DA6EDE50DE5DDE5062
:10132800DF59DE50E059DE50E159D8A028D0E2510B
:101338000E0D080EF326000EF422000EF324D96ECB
:10134800040EF420DA6EDE50DE10DE10DE10D8B4A3
:1013580016D0E2510E0D080EF326000EF422000EF0
:10136800F324D96E040EF420DA6EDECFDEF0DECF81
:10137800DFF0DECFE0F0DECFE1F0010ED16FE22B3F
:1013880028D7D105D8A467D0DEC0C8F2DFC0C9F21B
:10139800E0C0CAF2E1C0CBF2E15107E1DE29FF0E5D
:1013A800DF590F0EE059D8A01CD0DEC060F0DFC0B6
:1013B80061F0E0C062F0E1C063F07D0E646F000E82
:1013C800656F000E666F000E676FC4EC3BF00C0E85
:1013D800D89000016037613762376337E82EF8D755
:1013E80022D0DEC0BDF0DFC0BEF0E0C0BFF0E1C07B
:1013F800C0F00C0ED890BD37BE37BF37C037E82EC7
:10140800F9D7BDC060F0BEC061F0BFC062F0C0C017
:1014180063F07D0E646F000E656F000E666F000E40
:10142800676FC4EC3BF060C0CDF061C0CEF062C025
:10143800CFF063C0D0F0CDC06DF0CEC06EF0CFC09D
:101448006FF0D0C070F00201E95162EC43F0020184
:10145800E9514BEC39F0020E02011219D8A412001E
:101468000251F00B0809026F86EC3CF0120067ECA1
:1014780049F00001BD6FBDA914D0000E606F000EC9
:10148800616F000E626F020E636F01D812000500D3
:10149800FA6E01010451FD6E0551FE6EFF6AFA50A5
:1014A8001200010104510511D8B41200000E000108
:1014B800606F000E616F000E626F030E636F01D8DC
:1014C80012000500FA6E01010451FD6E0551FE6E11
:1014D800FF6AFA50120039C165F0000E0001666F0C
:1014E800000E28EC30F021C16DF022C16EF023C14E
:1014F8006FF024C170F00DEC33F001013C5195EC14
:1015080032F001013905D8A4EDD12FC162F0390EAE
:1015180055EC47F043C1A8F0010E0001A8170101DE
:10152800D89042350001A96F01013B39F00B000149
:10153800A911A811626F1D0E55EC47F0A6C0A8F0BE
:10154800A7C0A9F0A9C0A8F00001A96B030EA817AD
:101558003DC1AAF0010EAA17D890AA37D890AA3789
:1015680001013A39F00B0001AA11A811626F1E0E91
:1015780055EC47F001013F514011D8B46FD03FC13D
:10158800ACF040C1ADF00001AE6BAF6B4ED0ACC05B
:101598009AF0ADC09BF0AEC09CF0AFC09DF07D0E40
:1015A80000019E6F000E9F6F000EA06F000EA16FCE
:1015B800B1EC40F027D0ACC09AF0ADC09BF0AEC003
:1015C8009CF0AFC09DF0FA0E00019E6F000E9F6F59
:1015D800000EA06F000EA16FB1EC40F013D0ACC0AC
:1015E8009AF0ADC09BF0AEC09CF0AFC09DF0F40E79
:1015F80000019E6F010E9F6F000EA06F000EA16F7D
:10160800B1EC40F09AC0ACF09BC0ADF09CC0AEF01D
:101618009DC0AFF016D0000E0001AC6F000EAD6F8C
:10162800000EAE6F000EAF6F0CD001013B51070AE0
:10163800D8B4ADD70F0AD8B4BED7010AD8B4CFD71B
:10164800EAD701013A290001A86F05D0D890AF3335
:10165800AE33AD33AC33A82FF9D709D0000E000153
:10166800AC6F000EAD6F000EAE6F000EAF6FACC06A
:1016780062F0240E55EC47F0A6C062F01F0E55EC40
:1016880047F0260EA4EC46F00001B06F0C0E0101E5
:101698003A19D8A408D0070E3B19D8B40CD0080EB4
:1016A8003B19D8B408D00B0E3A19D8A407D0070EA6
:1016B8003B19D8A403D00001B08702D00001B0972D
:1016C800B085B0C062F0260E55EC47F0310EA4ECA0
:1016D80046F00001B06FF80EB017030EB013B0C09B
:1016E80062F0310E55EC47F00A0E0001626F370EBA
:1016F80055EC47F0120E01015219D8A42FD0070E4D
:101708003B19D8B404D0080E3B19D8A417D0310E11
:10171800A4EC46F00001B06FB09FB0C062F0310E8B
:1017280055EC47F0400E0001626F2F0E55EC47F064
:10173800000E0001626F300E55EC47F0090E0101F2
:101748003B19D8A40BD0310EA4EC46F00001B06FC1
:10175800B08FB0C062F0310E55EC47F0330EA4ECF8
:1017680046F00001B06FB09DB08141C1A8F0010EF4
:10177800A817060EA96FD890A837A92FFCD7A8518B
:10178800B013B0C062F0330E55EC47F041C1A8F079
:10179800010E0001A817D890A837D890A835FF0ADD
:1017A8001D0BB06FB0C062F03B0E55EC47F0010165
:1017B8002E510001626F200E55EC47F02DC162F0EA
:1017C800210E55EC47F0000E0001626F0D0E55EC2E
:1017D80047F0000E0001626F0E0E55EC47F0000E48
:1017E8000001626F0F0E55EC47F0120E01015219FD
:1017F800D8A471D0090E3B19D8A420D0800E215D41
:10180800130E2259610E2359330E2459D8A016D02D
:101818002105F70E2259CB0E23593C0E2459D8B076
:101828000DD0020E0001626F360E55EC47F0640EC3
:101838000001626F3A0E55EC47F02CD0090E0101F9
:101848003B19D8A421D0800E215D1A0E2259700EA2
:101858002359180E2459D8A017D0410E215DDD0E4A
:1018680022594A0E23591F0E2459D8B00DD0020E02
:101878000001626F360E55EC47F07F0E0001626F73
:101888003A0E55EC47F006D0030E0001626F360E93
:1018980055EC47F0090E01013B19D8A410D04105B9
:1018A800D8A40DD0650E0001626F3A0E55EC47F0D2
:1018B800190E0001626F3B0E55EC47F00CD0650E17
:1018C8000001626F3A0E55EC47F01D0E0001626F81
:1018D8003B0E55EC47F0FF0E0001626F120E55ECFF
:1018E80047F0120025C16DF026C16EF027C16FF0D8
:1018F80028C170F0A6EC3DF029C16DF02AC16EF048
:101908002BC16FF02CC170F0DBEC3DF001012E51C2
:101918000001626F250E55EC47F02DC162F0260ECE
:1019280055EC47F00A0EA4EC46F00001B06F9F0E8C
:10193800B01701015439E846E00B0001B013B0C0FC
:1019480062F00A0E55EC47F0C80E0001B06F0101B5
:101958003D51D8B402D00001B089B0C062F0300E59
:1019680055EC47F0000E0001AB6F10D0AB51010DE4
:10197800300EF324D96E010EF420DA6EDF50626F58
:10198800AB51280F55EC47F00001AB2B0101385142
:101998000001AB5DD8A0EAD701013851D8B408D00E
:1019A800380510090001626F270E55EC47F006D084
:1019B800000E0001626F270E55EC47F0FF0E000184
:1019C800626F3E0E55EC47F0FF0E0001626F3F0E4E
:1019D80055EC47F01200000E00016D6F62C0D9FF90
:1019E80063C0DAFFDF506E6F000E6D6F18D264515E
:1019F800D8B4F6D16D51020DA80EF324D96E020E9B
:101A0800F420DA6EDE28D8B4EBD162C0D9FF63C007
:101A1800DAFFDF50656F666B651F661F654B662BC7
:101A2800FE0E676FFF0E686F6D51020DA80EF3244E
:101A3800D96E020EF420DA6EDF50696F6A6B675157
:101A4800692768516A23610E6925F66EFF0E6A21BF
:101A5800F76EF86A000EF8220800F5506EC06BF0B9
:101A68006C6B6B27000E6C2365516B2766516C23DA
:101A78006CBFB6D16C5105E1100E6B5DD8B0D5D1F5
:101A8800AFD1D3D16E51010DF3506025D96EF4500A
:101A98006121DA6E030EDF6E6E2B6E51010DF3506D
:101AA8006025D96EF4506121DA6E000EDF6E6D513B
:101AB800020D000E656F020E666FA80E6527000EF8
:101AC8006623F3506527F4506623010E6525D96E09
:101AD800000E6621DA6E0201DFA00BD000016E5104
:101AE800010DF3506025D96EF4506121DA6E000EB5
:101AF800DB8000016D51020D000E656F020E666FEE
:101B0800A80E6527000E6623F3506527F450662358
:101B1800010E6525D96E000E6621DA6E0201DFA27C
:101B28000BD000016E51010DF3506025D96EF450B1
:101B38006121DA6E000EDB8200016D51020D000E8C
:101B4800656F020E666FA80E6527000E6623F350B8
:101B58006527F4506623010E6525D96E000E6621AF
:101B6800DA6E0201DFA489D000016E51010DF35035
:101B78006025D96EF4506121DA6E000EDB847DD0C9
:101B88006E51010DF3506025D96EF4506121DA6E63
:101B9800050EDF6E6E2B6E51010DF3506025D96E68
:101BA800F4506121DA6E000EDF6E6D51020D000EE9
:101BB800656F020E666FA80E6527000E6623F35048
:101BC8006527F4506623010E6525D96E000E66213F
:101BD800DA6E0201DFA60BD000016E51010DF35041
:101BE8006025D96EF4506121DA6E000EDB800001A9
:101BF8006D51020D000E656F020E666FA80E652707
:101C0800000E6623F3506527F4506623010E652500
:101C1800D96E000E6621DA6E0201DFA80BD0000132
:101C28006E51010DF3506025D96EF4506121DA6EC2
:101C3800000EDB8200016D51020D000E656F020E71
:101C4800666FA80E6527000E6623F3506527F450CB
:101C58006623010E6525D96E000E6621DA6E020133
:101C6800DFAA0BD000016E51010DF3506025D96E2B
:101C7800F4506121DA6E000EDB8400013CD06E5115
:101C8800010DF3506025D96EF4506121DA6E060E0D
:101C9800DF6E6E2B6E51010DF3506025D96EF45036
:101CA8006121DA6EE0C2DFFF6E2B64EC49F0800A36
:101CB800A00FD8A006D064EC49F0800A600FD8A025
:101CC8000CD000016E51010DF3506025D96EF4500F
:101CD8006121DA6E200EDF6E0ED000016E51010D0B
:101CE800F3506025D96EF4506121DA6E64EC49F046
:101CF8003F0BDF6EC2D76E2B91D06E51010DF350A2
:101D08006025D96EF4506121DA6E070EDF6E6E2BF6
:101D18006E51010DF3506025D96EF4506121DA6ED1
:101D2800000EDF6E6D51020D000E656F020E666FBC
:101D3800A80E6527000E6623F3506527F450662326
:101D4800010E6525D96E000E6621DA6E0201DFAE3E
:101D58000BD000016E51010DF3506025D96EF4507F
:101D68006121DA6E000EDB8000016D51020D000E5C
:101D7800656F020E666FA80E6527000E6623F35086
:101D88006527F4506623010E6525D96E000E66217D
:101D9800DA6E0201DFAC71D700016E51010DF3500C
:101DA8006025D96EF4506121DA6E000EDB8265D7AA
:101DB8000201DD69000EDE6F00016D51020DA80EF3
:101DC800F324D96E020EF420DA6E6E51010DF35031
:101DD8006025E96EF4506121EA6EDFCFEFFF8BD703
:101DE8006D51020DA80EF324D96E020EF420DA6E9E
:101DF800DF50020AD8B4DCD7010AD8B443D6070AA0
:101E0800D8B4DBD7010AD8B4BBD6030AD8B437D7BD
:101E1800010AD8B472D70F0AD8B4CFD76D2B0201F4
:101E2800A75100016D5DD8A0E2D562C0D9FF63C09B
:101E3800DAFF6EC0DFFF12000001CE6F100E000146
:101E4800D26F000ED16FCF0E606F000E616F000E63
:101E5800636F000E626F000E656F010E646F45ECD4
:101E680045F0E00E0001606F040E616F000E636FB5
:101E7800000E626F010E656F0F0E646F45EC45F042
:101E8800570E0001606F010E616F000E636F000E48
:101E9800626F000E656F100E646F45EC45F000012F
:101EA800CE05D8A407D0CF511F0B8009CF6F0201F0
:101EB800008105D00001CF511F0B4009CF6FFC0EE8
:101EC8000001CF17CF95CF97CF99D251010DE00ED2
:101ED800F324D96E040EF420DA6ECFC0DFFFD22BC4
:101EE800D251010DE00EF324606F040EF420616FEF
:101EF8001E0E626F020E636F000E656F040E646F34
:101F08006CEC3FF00001D251040FD26F000ED06F7D
:101F1800020102AD47D00001D08F0201DF51EB5D15
:101F2800D8B03FD00001D08D02010089D04BD12B11
:101F3800A2510001CC6FCD6B0201D0510001CC1928
:101F48000CE10201D1510001CD19D8A406D0000E30
:101F58000201EE6F23D0020124D00201A251000138
:101F6800CC6FCD6B0201D0510001CC5D0201D15183
:101F78000001CD59D8B013D00201EE2BEE51A35D6C
:101F8800D8B010D0000EEE6F6AEC34F00009D8A477
:101F980009D0000E0201D16F000ED06F0001D09D54
:101FA800DAD70099020100A304D00001D08B020106
:101FB80000930001D0990201A751D8B405D00001BF
:101FC800CA51CB11D8A406D00001D091D093D09596
:101FD800D09709D08AEC36F00001CC6FD051CC19DB
:101FE800F00BCC19D06FD251010DE00EF324D96E4D
:101FF800040EF420DA6ED0C0DFFFD22BD251010DCF
:10200800E00EF324606F040EF420616F060E626F19
:10201800020E636F000E656F020E646F6CEC3FF08A
:102028000001D251020FD26F0201A751D8B411D0CA
:102038000001CA51CB11D8B40CD0E00E606F040E69
:10204800616FD20E626F000E636F010E646FEFEC6A
:102058000CF00001D251010DE00EF324D96E040EEC
:10206800F420DA6EC7C0DFFFD22BCA51CB11D8B427
:1020780035D0D251010DE00EF324606F040EF42028
:10208800616FC8C062F0C9C063F0CAC064F0CBC059
:1020980065F06CEC3FF0C8C091F0C9C092F0CAC0BE
:1020A80093F0000E0001946F06C295F007C296F0F7
:1020B80008C297F009C298F0320E996F020E9A6F13
:1020C800D2C09BF0E00E9C6F040E9D6F000E9E6FB9
:1020D800E6EC25F00001D251CA2533D00201A75100
:1020E800D8B430D0EF0E0001606F050E616FD10ECD
:1020F800626F000E636F000E646FEFEC0CF0EF0E72
:102108000001916F050E926FD1C093F0000E946F8D
:1021180006C295F007C296F008C297F009C298F077
:10212800220E996F020E9A6FD2C09BF0E00E9C6F40
:10213800040E9D6F000E9E6FE6EC25F00001D25153
:10214800D125D26F06C26BF007C26CF008C26DF0E1
:1021580009C26EF00001D251F00F6F6F490E706F17
:10216800000E716F000E1BEC32F0E00E0001606F84
:10217800040E616F570E626F010E636F000E656F7C
:10218800100E646F6CEC3FF0220E0001B96F020E66
:10219800BA6F570EBB6F010EBC6FE00EBD6F040E19
:1021A800BE6FD2C0BFF0F8EC10F00001D251010DA3
:1021B800E00EF324606F040EF420616F570E626F17
:1021C800010E636F000E656F040E646F6CEC3FF0D8
:1021D8000001D251040FD26FF00ED2250201D46F44
:1021E800D56BFF0ED5231200000E0101D66F000E2D
:1021F800D86F000ED76F000ED56F000ED36F000E8C
:10220800D46FB9C091F0BAC092F0830E0001936FF9
:10221800010E946F730E956F010E966F94EC2BF070
:102228000001BF51C06FC16B0F0EC027000EC12344
:10223800040EC26FC135C133C033C22FFBD7C051A2
:102248000101D66FD651D8A404D0010ED66F000E66
:102258000BD0BFC0C0F00F0E0001C017D8A402D029
:10226800010E01D0000E0101D56FD505D8A448D0C4
:10227800000ED76FD639F00BF00FD86F24D00101BC
:10228800D751010D930EF324D96E010EF420DA6EA6
:10229800D751010D830EF324E96E010EF420EA6E86
:1022A800EF500001C06F0101D851010DF35000013A
:1022B800BD25E96EF450BE21EA6EEF50C019DF6EFD
:1022C8000101D72BD82BD6510001C06FC16BC03B81
:1022D800C13BF00EC117C0510F0BC113F00EC01750
:1022E8000101D8510001C26FC36BC051C25DC35117
:1022F800800AC46FC151800AC459D8B07FD0BFD7F3
:102308000001BF510F0BC06FC16BC01FC11FC04B75
:10231800C12BBF51C26FC36BC051C227C151C32368
:10232800C251BD250101D36F0001C351BE21010176
:10233800D46F000ED86F0F0ED86501D036D00001CB
:10234800BF510F0B0101D86113D0D851010DF350C3
:10235800D325D96EF450D421DA6ED851010DA30ECD
:10236800F324E96E010EF420EA6EDFCFEFFF1BD0F5
:102378000001BF510F0B0101D819D8A40AD0D851B8
:10238800010DA30EF324D96E010EF420DA6E800E2F
:1023980009D0D851010DA30EF324D96E010EF420F3
:1023A800DA6E000EDF6ED82BC6D7000ED86F0F0E70
:1023B800D86501D023D0D851010D930EF324D96EDE
:1023C800010EF420DA6ED851010D730EF324E96E74
:1023D800010EF420EA6EEF500001C06F0101D851E0
:1023E800010DA30EF324E96E010EF420EA6EEF50FE
:1023F8000001C019DF6E0101D82BD9D7C30E000127
:10240800606F010E616F000E636F000E626F000E49
:10241800656F100E646F45EC45F0000E0101D86F32
:1024280056D0000E0101D76F0F0ED76501D033D0FB
:10243800D751010DB30EF324D96E010EF420DA6ED4
:10244800D8510001C06FC16BC03BC13BF00EC11732
:10245800C0510F0BC113F00EC0170101D751000175
:10246800C027000EC123C051BD25E96EC151BE2150
:10247800EA6EEF50C26F0101D751010DC30EF3246C
:10248800E96E010EF420EA6EEF500001C219DF6E0A
:102498000101D72BC9D7C30E0001606F010E616F10
:1024A800B30E626F010E636F000E656F100E646FDE
:1024B8006CEC3FF0C30E00017D6F010E7E6FB9C05A
:1024C8007FF0BAC080F064EC44F00101D82BFF0E15
:1024D8000001C06FFF0EC16F0101D6510001C26F2C
:1024E800C36BC051C227C151C3230101D851000198
:1024F800C46FC56BC251C45DC551800AC66FC35154
:10250800800AC659D8A08DD7000E0101D86F0F0ECA
:10251800D86501D023D0D851010DB30EF324D96E5C
:10252800010EF420DA6ED851010D930EF324E96EF2
:10253800010EF420EA6EEF500001C06F0101D8517E
:10254800010DC30EF324E96E010EF420EA6EEF507C
:102558000001C019DF6E0101D82BD9D7B30E0001D5
:102568007D6F010E7E6FB9C07FF0BAC080F064EC59
:1025780044F0BBC060F0BCC061F0B30E0001626FF4
:10258800010E636F000E656F100E646F6CEC3FF008
:1025980012000001C669C769C869C969020103B1A7
:1025A80090D102510F0B030AD8A411D01251D8A40C
:1025B80005D00251F00B0409026F1200020E121925
:1025C800D8A41200000EE66EB5EC35F0120000A596
:1025D80003D0FDEC44F0120002A9120000A158D06B
:1025E800D951D75DD8A038D00251F00B0609026F37
:1025F800A0510001C26F0201A1510001C36FC46B59
:10260800C56B0C0ED890C237C337C437C537E82E10
:10261800F9D7C2C060F0C3C061F0C4C062F0C5C0E1
:1026280063F07D0E646F000E656F000E666F000E1E
:10263800676FC4EC3BF060C06DF061C06EF062C0C3
:102648006FF063C070F00201E85162EC43F00201E0
:10265800E8514BEC39F0120079EC48F001010451D3
:102668000511D8B41200000E0001606F000E616FF2
:10267800000E626F000E636F01D812000500FA6E3B
:1026880001010451FD6E0551FE6EFF6AFA501200F9
:102698000201D851D65DD8A0F8D00251F00B060936
:1026A800026F010E70EC3DF00009D8A431D0F00E95
:1026B8000001B16F040EB26FD4C2B3F051EC1EF03A
:1026C8000001B151B211D8A407D00201D82B025190
:1026D800F00B0109026F120052EC48F0010104519D
:1026E8000511D8B41200000E0001606F000E616F72
:1026F800000E626F000E636F01D812000500FA6EBB
:1027080001010451FD6E0551FE6EFF6AFA50120078
:10271800000E0001CA6F7CD00001CA510E0D040ED4
:10272800F326000EF422000EF324D96E040EF420D2
:10273800DA6EDE04D8A46AD0CA510E0D080EF3264C
:10274800000EF422000EF324D96E040EF420DA6E83
:10275800DE50DE10DE10DE10D8B458D0CA510E0D8F
:10276800080EF326000EF422000EF324D96E040E90
:10277800F420DA6EDE50C65DDE50C759DE50C85907
:10278800DE50C959D8A042D0CA510E0D050EF32605
:10279800000EF422000EF324D96E040EF420DA6E33
:1027A8000401DF500F0B0001C26FC2510201DF5D4F
:1027B800D8A02CD00001CA510E0D050EF326000E2C
:1027C800F422000EF324D96E040EF420DA6E04010C
:1027D800DF380F0B0001C26F0201DF510001C25D3B
:1027E800D8A014D0CA510E0D080EF326000EF422FC
:1027F800000EF324D96E040EF420DA6EDECFC6F094
:10280800DECFC7F0DECFC8F0DECFC9F00001CA2B9B
:10281800CA510201ED5DD8B07FD7C6C0C2F0C7C0AB
:10282800C3F0C8C0C4F0C9C0C5F00C0ED8900001F0
:10283800C237C337C437C537E82EF8D7000EC225CC
:10284800606F200EC321616F030EC421626F000EFA
:10285800C521636F7D0E646F000E656F000E666F95
:10286800000E676FC4EC3BF060C06DF061C06EF0A5
:1028780062C06FF063C070F00201EA5162EC43F08D
:102888000201EA514BEC39F0120052EC48F0010118
:1028980004510511D8B41200000E0001606F000E3B
:1028A800616F000E626F010E636F01D812000500A0
:1028B800FA6E01010451FD6E0551FE6EFF6AFA5071
:1028C8001200010104510511D8B41200000E0001D4
:1028D800606F000E616F000E626F020E636F01D8A9
:1028E80012000500FA6E01010451FD6E0551FE6EDD
:1028F800FF6AFA5012000A0E01011F6F010E466EA0
:10290800000E00017C6F0F0E7C6501D016D07C5143
:10291800010DF3506825D96EF4506921DA6EDF5045
:102928006A6F7C51010DF3506625D96EF45067210A
:10293800DA6E6A51DF1A7C2BE6D7000E00017C6F35
:102948000F0E7C6501D022D07C51010DF350662515
:10295800D96EF4506721DA6EDF506A6F6A51010D43
:10296800410EF324F66EFE0EF420F76EF86A000EA0
:10297800F8227C51010DF3506625D96EF450672179
:10298800DA6E0800F5CFDFFF7C2BDAD766C060F07F
:1029980067C061F08CEC29F001011F05D8B427D17C
:1029A800000E00017C6F0F0E7C6501D020D17C5198
:1029B8006A6F6B6B010E6A27000E6B236A516625DE
:1029C800D96E6B516721DA6EDF506C6F7C516625CA
:1029D800D96E000E6721DA6EDF506C197A6F7C5160
:1029E8006A6F6B6B030E6A27000E6B236A516625AC
:1029F800D96E6B516721DA6EDF506C6F7C516D6F49
:102A08006E6B020E6D27000E6E236D516625D96E12
:102A18006E516721DA6EDF506C197B6F7A517B1922
:102A2800786F7C516A6F6B6B010E6A27000E6B23FF
:102A38006A516625D96E6B516721DA6EDF506C6F6B
:102A48007C516D6F6E6B020E6D27000E6E236D51FB
:102A58006625D96E6E516721DA6EDF506C19796F71
:102A68007F0E7A650CD01B0E7AC06AF06B6BD8901B
:102A78006A376B376A19726F6B51736F05D0D890CC
:102A88007A35726F736B733772C07AF07F0E79651F
:102A98000CD01B0E79C06AF06B6BD8906A376B3715
:102AA8006A19746F6B51756F05D0D8907935746F4A
:102AB800756B753774C079F07F0E7B650CD01B0E73
:102AC8007BC06AF06B6BD8906A376B376A19766F80
:102AD8006B51776F05D0D8907B35766F776B7737EA
:102AE80076C07BF07C516625D96E000E6721DA6EC0
:102AF8007C516625E96E000E6721EA6EEF50781961
:102B08007A19DF6E7C516A6F6B6B010E6A27000EB3
:102B18006B236A516625D96E6B516721DA6E7C5139
:102B28006C6F6D6B010E6C27000E6D236C51662562
:102B3800E96E6D516721EA6EEF5078197919DF6EE9
:102B48007C516A6F6B6B020E6A27000E6B236A5109
:102B58006625D96E6B516721DA6E7C516C6F6D6B8F
:102B6800020E6C27000E6D236C516625E96E6D51BF
:102B78006721EA6EEF5078197B19DF6E7C516A6F16
:102B88006B6B030E6A27000E6B236A516625D96E9C
:102B98006B516721DA6E7C516C6F6D6B020E6C277E
:102BA800000E6D236C516625E96E6D516721EA6E42
:102BB800EF506E6F7C516F6F706B010E6F27000EB8
:102BC80070236F516625E96E70516721EA6EEF50E8
:102BD800716F7C516625E96E000E6721EA6EEF5031
:102BE80071196E197819DF6E040E7C27DCD668C05F
:102BF80060F069C061F086EC1AF0000E00017C6F8D
:102C08000F0E7C6501D016D07C51010DF35068255C
:102C1800D96EF4506921DA6EDF506A6F7C51010D6C
:102C2800F3506625D96EF4506721DA6E6A51DF1ABF
:102C38007C2BE6D701011F071F51D8B412007DD69F
:102C48000A0EE126000EE222FF0E506EFF0E516EB4
:102C5800FF0E526EFF0E536EFA0E50C0E3FFFB0ECE
:102C680051C0E3FFFC0E52C0E3FFFD0E53C0E3FF6B
:102C7800FF0EE36AFE0EE36AFE0EE3500E0D040E2D
:102C8800F324D96E040EF420DA6EDE04D8A4ADD095
:102C9800FE0EE3500E0D080EF324D96E040EF42038
:102CA800DA6EDE50DE10DE10DE10D8B49ED0FE0ED6
:102CB800E3500E0D080EF324D96E040EF420DA6EDC
:102CC800DE500201C85DDE50C959DE50CA59DE50D7
:102CD800CB59D8B02FD0FE0EE3500E0D080EF324BA
:102CE800D96E040EF420DA6EDECF50F0DECF51F04C
:102CF800DECF52F0DECF53F0C851505C4C6EC95154
:102D080051584D6ECA5152584E6ECB5153584F6E52
:102D1800FE0EE3500E0D080EF324D96E040EF420B7
:102D2800DA6E4CC0DEFF4DC0DEFF4EC0DEFF4FC086
:102D3800DEFF0DD0FE0EE3500E0D080EF324D96E03
:102D4800040EF420DA6EDE6ADE6ADE6ADD6AFE0EE2
:102D5800E3500E0D080EF324D96E040EF420DA6E3B
:102D6800FA0EE3CF48F0DE50485CFB0EE3CF48F0A4
:102D7800DE504858FC0EE3CF48F0DE504858FD0EB0
:102D8800E3CF48F0DE504858D8A02FD0FE0EE350CD
:102D98000E0D080EF324D96E040EF420DA6EDE5000
:102DA800DE10DE10DE10D8B420D0FE0EE3500E0D7B
:102DB800080EF324D96E040EF420DA6EDECF50F03C
:102DC800DECF51F0DECF52F0DECF53F0FA0E50C016
:102DD800E3FFFB0E51C0E3FFFC0E52C0E3FFFD0E04
:102DE80053C0E3FFFF0EE36AE32AFE0EE32AFE0E5A
:102DF800E3CF48F00F0E48643FD7FF0EE304D8A492
:102E08009DD0E150FA0FD96EE250DA6EFF0EDA2249
:102E1800DECFC8F2DECFC9F2DECFCAF2DECFCBF208
:102E2800FD0EE3500EE1FA0EE328FB0EE3CF48F067
:102E3800FF0E485AFC0EE3CF48F00F0E485AD8A0B0
:102E48002BD0E150FA0FD96EE250DA6EFF0EDA227B
:102E5800DECF60F0DECF61F0DECF62F0DECF63F070
:102E68007D0E0001646F000E656F000E666F000E28
:102E7800676FC4EC3BF060C050F061C051F062C0B5
:102E880052F063C053F00C0ED8905036513652367B
:102E98005336E82EF9D72FD0FA0EE3CF50F0FB0EB9
:102EA800E3CF51F0FC0EE3CF52F0FD0EE3CF53F029
:102EB8000C0ED8905036513652365336E82EF9D784
:102EC80050C060F051C061F052C062F053C063F06E
:102ED8007D0E0001646F000E656F000E666F000EB8
:102EE800676FC4EC3BF060C050F061C051F062C045
:102EF80052F063C053F0F60E50C0E3FFF70E51C016
:102F0800E3FFF80E52C0E3FFF90E53C0E3FFE150B0
:102F1800F60FD96EE250DA6EFF0EDA22DECF6DF0D0
:102F2800DECF6EF0DECF6FF0DECF70F00201E95138
:102F380062EC43F00201E9514BEC39F0F50EE12661
:102F4800FF0EE2221200000E0001B56FB0C0B6F00D
:102F5800B1C0B7F05AD10201A751020D000E00010D
:102F6800B36F020EB46FA80EB327000EB423F3504C
:102F7800B327F450B423010EB325D96E000EB42143
:102F8800DA6E0201DF90A751020D000E0001B36F47
:102F9800020EB46FA80EB327000EB423F350B32764
:102FA800F450B423010EB325D96E000EB421DA6EA5
:102FB8000201DF92A751020D000E0001B36F020E4D
:102FC800B46FA80EB327000EB423F350B327F45000
:102FD800B423010EB325D96E000EB421DA6E0201B6
:102FE800DF94A751020D000E0001B36F020EB46FFB
:102FF800A80EB327000EB423F350B327F450B4231C
:10300800010EB325D96E000EB421DA6E0201DF96E7
:10301800A751020D000E0001B36F020EB46FA80E87
:10302800B327000EB423F350B327F450B423010E92
:10303800B325D96E000EB421DA6E0201DF98A751CC
:10304800020D000E0001B36F020EB46FA80EB32775
:10305800000EB423F350B327F450B423010EB32564
:10306800D96E000EB421DA6E0201DF9AA751020D63
:10307800000E0001B36F020EB46FA80EB327000E46
:10308800B423F350B327F450B423010EB325D96EFB
:10309800000EB421DA6E0201DF9CA751020D000E6A
:1030A8000001B36F020EB46FA80EB327000EB4234D
:1030B800F350B327F450B423010EB325D96E000E94
:1030C800B421DA6E0201DF9EB6C0D9FFB7C0DAFFBD
:1030D800A751020DA80EF324E96E020EF420EA6E41
:1030E800DFCFEFFF64D0B6C060F0B7C061F0CCECC2
:1030F80044F060C0B6F061C0B7F04DD0B6C06FF014
:10310800B7C070F022EC19F06FC0B6F070C0B7F01D
:103118006CD0B6C060F0B7C061F05DEC41F060C043
:10312800B6F061C0B7F061D0B6C0A6F0B7C0A7F0DE
:1031380085EC20F0A6C0B6F0A7C0B7F056D0B6C050
:1031480060F0B7C061F01FEC49F060C0B6F061C034
:10315800B7F04BD0B6C0A6F0B7C0A7F019EC1DF079
:10316800A6C0B6F0A7C0B7F040D0B6C067F0B7C0E9
:1031780068F07CEC46F067C0B6F068C0B7F035D0B0
:10318800010E0001B56FB251010DF350B025B66FB5
:10319800F450B121B76F0201A751020DA80EF32414
:1031A800D96E020EF420DA6EFF0EDF6E1ED0B6C0A6
:1031B800D9FFB7C0DAFF0001B64BB72BDF50020AC0
:1031C800D8B491D7010AD8B499D7070AD8B4A1D7E7
:1031D800010AD8B4A9D7030AD8B4B1D7010AD8B418
:1031E800B9D70F0AD8B4C1D7CBD70201A751020D5E
:1031F800A80EF324D96E020EF420DA6EDE28D8B4B5
:1032080004D0100EA76101D0A72B0001B251010D07
:10321800B0C0B3F0B1C0B4F0F350B327F450B42346
:10322800B351B65DB451B759D8B003D0B551D8B47D
:1032380092D6B6C0B0F0B7C0B1F012006FC0D9FFD7
:1032480070C0DAFFDF500F0B0001756F6FC0D9FF38
:1032580070C0DAFFDF50716F71390F0B0F0B786F89
:103268006F4B702B6FC0D9FF70C0DAFFDECF73F0E1
:10327800DDCF74F0020E6F256F6F000E7021706F36
:103288006FC076F070C077F06F4B702B020102AD03
:10329800EFD076C0D9FF77C0DAFF0001DF38070B1F
:1032A80035EC47F00009D8A421D073C060F074C091
:1032B80061F0CBEC3FF00009D8A418D00201A75167
:1032C800020D000E0001716F020E726FA80E7127B9
:1032D800000E7223F3507127F4507223010E7125EA
:1032E800D96E000E7221DA6E0201DF80000178517A
:1032F80030EC48F00009D8A422D00201EB510001BB
:10330800785DD8A01CD078510201EC5DD8A017D008
:10331800A751020D000E0001716F020E726FA80E08
:103328007127000E7223F3507127F4507223010E97
:103338007125D96E000E7221DA6E0201DF8200015A
:10334800755129EC46F00009D8A418D00201A751FC
:10335800020D000E0001716F020E726FA80E712728
:10336800000E7223F3507127F4507223010E712559
:10337800D96E000E7221DA6E0201DF840201A751B4
:10338800020D000E0001716F020E726FA80E7127F8
:10339800000E7223F3507127F4507223010E712529
:1033A800D96E000E7221DA6E0201DFA4A6D0A751F1
:1033B800020D000E0001716F020E726FA80E7127C8
:1033C800000E7223F3507127F4507223010E7125F9
:1033D800D96E000E7221DA6E0201DFA28ED0A751DB
:1033E800020D000E0001716F020E726FA80E712798
:1033F800000E7223F3507127F4507223010E7125C9
:10340800D96E000E7221DA6E0201DFA076D073C089
:103418006CF074C06DF076C0D9FF77C0DAFF000198
:10342800DF38070B6E6FE2EC47F00001755115ECC1
:1034380049F002010389000178511AEC49F076C07D
:10344800D9FF77C0DAFF0001DF500F0B0009D8A4BD
:1034580002D0000E09D076C0D9FF77C0DAFF00018C
:10346800DF500F0B716F71050201D66F038B45D0CA
:10347800A751020D000E0001716F020E726FA80EA7
:103488007127000E7223F3507127F4507223010E36
:103498007125D96E000E7221DA6E0201DF90A751F4
:1034A800020D000E0001716F020E726FA80E7127D7
:1034B800000E7223F3507127F4507223010E712508
:1034C800D96E000E7221DA6E0201DF92A751020D49
:1034D800000E0001716F020E726FA80E7127000EA8
:1034E8007223F3507127F4507223010E7125D96E9F
:1034F800000E7221DA6E0201DF946FC06FF070C0A7
:1035080070F01200000120EE0DF06051D9266151D3
:10351800DA22DF50626F6251010D410EF324F66E1C
:10352800FE0EF420F76EF86A000EF8220800F5CFB8
:1035380063F060C0D9FF61C0DAFF6351DF1A20EE83
:103548000EF06051D9266151DA22DF50626F625164
:10355800010D410EF324F66EFE0EF420F76EF86AA4
:10356800000EF8220800F5CF63F020EE01F060515C
:10357800D9266151DA226351DF1A20EE0FF060512B
:10358800D9266151DA22DF50626F6251010D410E76
:10359800F324F66EFE0EF420F76EF86A000EF82299
:1035A8000800F5CF63F020EE02F06051D926615192
:1035B800DA226351DF1A20EE0CF06051D9266151EE
:1035C800DA22DF50626F6251010D410EF324F66E6C
:1035D800FE0EF420F76EF86A000EF8220800F5CF08
:1035E80063F020EE03F06051D9266151DA2263516D
:1035F800DF1A60C0D9FF61C0DAFF4650DF1A7F0EBC
:1036080046640CD01B0E46C062F0636BD8906237DC
:1036180063376219646F6351656F05D0D89046347B
:10362800646F656B653764C046F060C0D9FF61C0E0
:10363800DAFFDF50626F20EE04F06051D926615145
:10364800DA226251DF1A20EE01F06051D926615169
:10365800DA22DF50626F20EE05F06051D926615101
:10366800DA226251DF1A20EE02F06051D926615148
:10367800DA22DF50626F20EE06F06051D9266151E0
:10368800DA226251DF1A20EE03F06051D926615127
:10369800DA22DF50626F20EE07F06051D9266151BF
:1036A800DA226251DF1A20EE04F06051D926615106
:1036B800DA22DF50626F20EE08F06051D92661519E
:1036C800DA226251DF1A20EE05F06051D9266151E5
:1036D800DA22DF50626F20EE09F06051D92661517D
:1036E800DA226251DF1A20EE06F06051D9266151C4
:1036F800DA22DF50626F20EE0AF06051D92661515C
:10370800DA226251DF1A20EE07F06051D9266151A2
:10371800DA22DF50626F20EE0BF06051D92661513A
:10372800DA226251DF1A20EE08F06051D926615181
:10373800DA22DF50626F20EE0CF06051D926615119
:10374800DA226251DF1A20EE09F06051D926615160
:10375800DA22DF50626F20EE0DF06051D9266151F8
:10376800DA226251DF1A20EE0AF06051D92661513F
:10377800DA22DF50626F20EE0EF06051D9266151D7
:10378800DA226251DF1A20EE0BF06051D92661511E
:10379800DA22DF50626F20EE0FF06051D9266151B6
:1037A800DA226251DF1A12005DEC45F0F28EF28CDB
:1037B800F40E0001626FFF0E636FE5EC44F00C0E2F
:1037C8000001B26F930EB36F0A0EB46F930EB56F0C
:1037D8000BEC3FF001011D51D8A420D0F50E0001DB
:1037E8006B6F020E6C6FD0EC45F0F60E00016B6F3C
:1037F800010E6C6F8BEC45F0D00E00016B6F030E61
:103808006C6FB9EC45F0000EA7EC38F0D90E00014A
:10381800626FFF0E636FE5EC44F022D0C00E00012A
:103828006B6F030E6C6F74EC45F0B00E00016B6F9C
:10383800030E6C6FA2EC45F0F2C160F0F3C161F0C9
:10384800F4C162F0F5C163F018EC48F0010EA7EC82
:1038580038F0E70E0001626FFF0E636FE5EC44F08D
:1038680061EC49F027EC44F0E6EC48F00009D8B4E4
:1038780037D001011C2B000E7FEC44F0000160C022
:103888006FF161C070F10101716B726B540E000130
:10389800746F500E756F400E766F6FC168F070C10F
:1038A80069F071C16AF072C16BF09CEC3FF068C0BE
:1038B80071F069C072F06AC073F0A0EC31F071C0A9
:1038C80080F072C081F073C082F024EC31F080C0C7
:1038D80000F181C001F182C002F183C003F17E9240
:1038E80001011C05D8A4BED7000E0001746FC80ED4
:1038F800756F420E766F12C171F013C172F014C168
:1039080073F0A0EC31F071C080F072C081F073C028
:1039180082F024EC31F0000181C080F0816B80518D
:103928000101676F000E0001746FC80E756F420EBB
:10393800766F12C171F013C172F014C173F0A0EC6C
:1039480031F071C080F072C081F073C082F024EC55
:1039580031F0000180510101686F0FC180F010C182
:1039680081F011C182F024EC31F0000181C080F0B7
:10397800816B80510101696F0FC180F010C181F026
:1039880011C182F024EC31F00001805101016A6F0D
:10399800000E0001746FC80E756F420E766F0CC171
:1039A80071F00DC172F00EC173F0A0EC31F071C06E
:1039B80080F072C081F073C082F024EC31F0000115
:1039C80081C080F0816B805101016B6F000E000196
:1039D800746FC80E756F420E766F0CC171F00DC111
:1039E80072F00EC173F0A0EC31F071C080F072C0BB
:1039F80081F073C082F024EC31F0000180510101A4
:103A08006C6F01516D6F00C16EF1020E0001D36F32
:103A1800670ED46F010ED56F080ED66F000E21EC1D
:103A280036F0000E01011C6F1DD7000E0001AB6FB0
:103A3800000EAC6F000EAD6F000EAE6FA6C0D9FFC2
:103A4800A7C0DAFFDF50AF6FA64BA72BA6C0D9FFE0
:103A5800A7C0DAFFFF0EDE14AB6FFF0EDE14AC6FEB
:103A6800FF0EDE14AD6F000EDE14AE6FABC09AF021
:103A7800ACC09BF0ADC09CF0AEC09DF0640E9E6FD4
:103A8800000E9F6F000EA06F000EA16FB1EC40F00A
:103A98009AC0ABF09BC0ACF09CC0ADF09DC0AEF03E
:103AA800030E0001A625A66F000EA721A76FA6C0CA
:103AB800D9FFA7C0DAFFDF50AA6FA64BA72B000ECD
:103AC800606FAF51DFEC46F00009D8A44BD0ABC013
:103AD80060F0ACC061F0ADC062F0AEC063F076ECEF
:103AE8003EF00009D8B407D00001AB51AC11AD11BC
:103AF800AE11D8A418D00201A751020D000E000182
:103B0800A86F020EA96FA80EA827000EA923F350CC
:103B1800A827F450A923010EA825D96E000EA921C3
:103B2800DA6E0201DF8E0001AA5194EC42F000091E
:103B3800D8A418D00201A751020D000E0001A86FE9
:103B4800020EA96FA80EA827000EA923F350A827D4
:103B5800F450A923010EA825D96E000EA921DA6E0A
:103B68000201DF8C0201A751020D000E0001A86FAF
:103B7800020EA96FA80EA827000EA923F350A827A4
:103B8800F450A923010EA825D96E000EA921DA6EDA
:103B98000201DFAE7DD0A751020D000E0001A86F13
:103BA800020EA96FA80EA827000EA923F350A82774
:103BB800F450A923010EA825D96E000EA921DA6EAA
:103BC8000201DFAC65D0100EDA612ED00001AB51D6
:103BD800AC11AD11AE11D8B420D0ABC060F0ACC000
:103BE80061F0ADC062F0AEC063F0AF51DAEC42F004
:103BF800AAC060F00001AF51EDEC2AF0010E0001FF
:103C0800616F2E0E606FAF51FCEC42F0010E0001A7
:103C1800606FAF51D9EC28F039D0000E0001646F05
:103C2800AF5157EC40F032D00001AB51AC11AD119F
:103C3800AE11D8B424D0ABC060F0ACC061F0ADC058
:103C480062F0AEC063F0AF51100FDAEC42F0AAC0D8
:103C580060F00001AF51100FEDEC2AF0010E0001E9
:103C6800616F2E0E606FAF51100FFCEC42F0010E29
:103C78000001606FAF51100FD9EC28F007D0000E8B
:103C88000001646FAF51100F57EC40F00201038739
:103C9800A6C0A6F0A7C0A7F01200010144A506D04F
:103CA800800E0001B26F030EB16F120044C1B4F070
:103CB800030E0001B417D8B405D0800EB26F040EFD
:103CC800B16F120001013951D8A409D0400E00018A
:103CD800B36505D0800EB26F020EB16F12000101FC
:103CE8004851B8EC46F0000E0001A76F040EA66F0D
:103CF8006FEC0AF001013905D8A427D0B3C062F0EF
:103D0800220E55EC47F00A0EA4EC46F00001C06FF5
:103D1800F00EC017C087C0C062F00A0E55EC47F01D
:103D2800400E0001626F400E55EC47F0000E000196
:103D3800626F410E55EC47F039C165F0010E000184
:103D4800666F010E28EC30F00CD0000E0001626F97
:103D5800400E55EC47F0000E0001626F410E55EC25
:103D680047F001013951D8A405D0B3C062F0000E64
:103D780055EC47F07CEC49F0800EDFEC48F0000E83
:103D88000001C16F0DD0C151010DF350B125D96E9D
:103D9800F450B221DA6EDF50DFEC48F00001C12B9D
:103DA800B351C15DD8A0EFD77AEC49F00101448145
:103DB800E70E441739C165F0000E0001666F030E67
:103DC80028EC30F0000E0001B86F000EB96F0A0E33
:103DD800BA6F000EBB6FB8C06DF0B9C06EF0BAC054
:103DE8006FF0BBC070F00101485162EC43F0010173
:103DF80048514BEC39F001014B514C114D114E110A
:103E0800D8B461D04E5107E14B29FF0E4C590F0E23
:103E18004D59D8A01DD04BC160F04CC161F04DC1C7
:103E280062F04EC163F07D0E0001646F000E656F95
:103E3800000E666F000E676FC4EC3BF00C0ED89056
:103E480000016037613762376337E82EF8D723D02F
:103E58004BC1B4F04CC1B5F04DC1B6F04EC1B7F08E
:103E68000C0ED8900001B437B537B637B737E82EFF
:103E7800F8D7B4C060F0B5C061F0B6C062F0B7C0A2
:103E880063F07D0E646F000E656F000E666F000EA6
:103E9800676FC4EC3BF060C0BCF061C0BDF062C0AD
:103EA800BEF063C0BFF0BCC06DF0BDC06EF0BEC058
:103EB8006FF0BFC070F001014A5162EC43F001019C
:103EC8004A514BEC39F0000E0001B26F000EB16F91
:103ED8001200010144A506D0800E0001B26F030E46
:103EE800B16F120044C1B3F0030E0001B317D8B488
:103EF80005D0800EB26F040EB16F1200B151B2112D
:103F0800D8A407D0000EA76F040EA66F6FEC0AF0B6
:103F180006D0B1C0A6F0B2C0A7F06FEC0AF001015C
:103F28003905D8A413D0010E0001626F220E55EC9A
:103F380047F0000E0001626F400E55EC47F0000E8E
:103F48000001626F410E55EC47F016D055C162F082
:103F5800120E55EC47F056C162F0130E55EC47F0BF
:103F6800000E0001626F400E55EC47F0000E000194
:103F7800626F410E55EC47F001014483E70E441788
:103F88000001B151B211D8A408D039C165F0000EB2
:103F9800666F050E28EC30F046D001013905D8A42B
:103FA80009D0010E0001656F000E666F060E28EC41
:103FB80030F039D0000E0001656F000E666F050EF7
:103FC80028EC30F00001B151B36FB251B46FB56B4A
:103FD800B66B0C0ED890B337B437B537B637E82E72
:103FE800F9D7B3C060F0B4C061F0B5C062F0B6C034
:103FF80063F07D0E646F000E656F000E666F000E35
:10400800676FC4EC3BF060C06DF061C06EF062C0D9
:104018006FF063C070F00101495162EC43F0010197
:1040280049514BEC39F001014B514C114D114E11D6
:10403800D8B461D04E5107E14B29FF0E4C590F0EF1
:104048004D59D8A01DD04BC160F04CC161F04DC195
:1040580062F04EC163F07D0E0001646F000E656F63
:10406800000E666F000E676FC4EC3BF00C0ED89024
:1040780000016037613762376337E82EF8D723D0FD
:104088004BC1B3F04CC1B4F04DC1B5F04EC1B6F060
:104098000C0ED8900001B337B437B537B637E82ED1
:1040A800F8D7B3C060F0B4C061F0B5C062F0B6C074
:1040B80063F07D0E646F000E656F000E666F000E74
:1040C800676FC4EC3BF060C0B7F061C0B8F062C085
:1040D800B9F063C0BAF0B7C06DF0B8C06EF0B9C03F
:1040E8006FF0BAC070F001014A5162EC43F001016F
:1040F8004A514BEC39F0000E0001B26F000EB16F5F
:104108001200000E0001AA6F000EAB6F000EAC6F1C
:10411800000EAD6FA6C0D9FFA7C0DAFFDF50AE6FA3
:10412800A64BA72BA6C0D9FFA7C0DAFFFF0EDE1447
:10413800AA6FFF0EDE14AB6FFF0EDE14AC6F000E1D
:10414800DE14AD6FAAC09AF0ABC09BF0ACC09CF077
:10415800ADC09DF0640E9E6F000E9F6F000EA06FA5
:10416800000EA16FB1EC40F09AC0AAF09BC0ABF072
:104178009CC0ACF09DC0ADF0030E0001A625A66F53
:10418800000EA721A76FAAC060F0ABC061F0ACC059
:1041980062F0ADC063F076EC3EF00009D8A418D008
:1041A8000201A751020D000E0001A86F020EA96FAF
:1041B800A80EA827000EA923F350A827F450A92376
:1041C800010EA825D96E000EA921DA6E0201DF863C
:1041D8000001AE510F0B30EC48F00009D8A418D0FC
:1041E8000201A751020D000E0001A86F020EA96F6F
:1041F800A80EA827000EA923F350A827F450A92336
:10420800010EA825D96E000EA921DA6E0201DF88F9
:104218000001AE39070B24EC48F00009D8A418D0E7
:104228000201A751020D000E0001A86F020EA96F2E
:10423800A80EA827000EA923F350A827F450A923F5
:10424800010EA825D96E000EA921DA6E0201DF8AB7
:104258000201A751020D000E0001A86F020EA96FFE
:10426800A80EA827000EA923F350A827F450A923C5
:10427800010EA825D96E000EA921DA6E0201DFA869
:1042880045D0A751020D000E0001A86F020EA96FBC
:10429800A80EA827000EA923F350A827F450A92395
:1042A800010EA825D96E000EA921DA6E0201DFA63B
:1042B8002DD0A751020D000E0001A86F020EA96FA4
:1042C800A80EA827000EA923F350A827F450A92365
:1042D800010EA825D96E000EA921DA6E0201DFAA07
:1042E80015D00001AE39070B0201EF6FAAC060F0CC
:1042F800ABC061F0ACC062F0ADC063F00001AE517C
:104308000F0B646F47EC48F00201038FA6C0A6F0BC
:10431800A7C0A7F012000001A86F210E0001A8197C
:10432800D8A41200030EAD6F000EAE6F040EAE657A
:1043380001D0E5D0000EA96F000EAA6F000EAB6F7A
:10434800000EAC6FA90E606F000E616FAE51030DC9
:104358000D0EF326000EF422F350A625626FF450DA
:10436800A721636F000E656F030E646F6CEC3FF05E
:10437800A9C09AF0AAC09BF0ABC09CF0ACC09DF05D
:10438800640E00019E6F000E9F6F000EA06F000E5E
:10439800A16FB1EC40F09AC0A9F09BC0AAF09CC0F4
:1043A800ABF09DC0ACF00001A951AA11AB11AC1142
:1043B800D8B49BD0A9C060F0AAC061F0ABC062F0CD
:1043C800ACC063F076EC3EF00009D8A495D00001AB
:1043D800AE51AD25606F616B6137000E636F0E0ED5
:1043E800626F90EC46F0000E00016025D96E040E55
:1043F8006121DA6EA9C0DEFFAAC0DEFFABC0DEFF16
:10440800ACC0DEFFAE51AD25606F616B6137000E49
:10441800636F0E0E626F90EC46F0050E0001602788
:10442800000E6123000E6025D96E040E6121DA6E3C
:104438000401DF500F0B5009DF6E0001AE51AD25AE
:10444800606F616B6137000E636F0E0E626F90ECE8
:1044580046F0050E00016027000E6123000E60255E
:10446800D96E040E6121DA6E0401DF90DF92DF94C9
:10447800DF960001AE51AD25606F616B6137000EAC
:10448800636F0E0E626F90EC46F0060E0001602717
:10449800000E6123000E6025D96E040E6121DA6ECC
:1044A800E70EDE6E030EDD6EAE51AD25606F616BFB
:1044B8006137000E636F0E0E626F90EC46F00D0EC2
:1044C80000016027000E6123000E6025D96E040EDE
:1044D8006121DA6EFF0EDF6E010E646FAE51AD25FD
:1044E80057EC40F00201038707D0000E0001646F0B
:1044F800AE51AD2557EC40F00001AE2B17D70201A5
:10450800038712000001B16F0201F005D8B4B0ECC6
:1045180041F0340E0201F46FF45147EC49F0000EFB
:104528000201026F000E036F000E046F000E056F8C
:10453800DD69000EDE6F000EC86F000EC96F000E39
:10454800CA6F000ECB6F000ED56F000ED46F000E31
:104558000A6F000E0B6F000E0C6F000E0D6F000E31
:10456800066F000E076F000E086F000E096F000E31
:10457800D36F000ED26F000EDC6F010EDB6F000EE2
:10458800D16F000ED06F000EEE6F000EEF6F000EB1
:10459800C86F000EC96F000ECA6F000ECB6F03956F
:1045A800000E026F000E036F000E046F000E056F01
:1045B800000E016F000E006F070ED76F000ED66F4A
:1045C800010ED96F010ED86FE069B1C0A4F2000ED8
:1045D800126F100EED6F0001B151D8A41BD0FF0E61
:1045E800796F050E7A6FA00E7B6F270E7C6FBE0E5B
:1045F8007D6F330E7E6F6DEC23F0B4EC3AF0000E55
:1046080002011C6F080E186FE60E196FD30E1A6F91
:10461800330E1BD0FF0E0001796F050E7A6F200E46
:104628007B6FA20E7C6FD30E7D6F190E7E6F6DECC3
:1046380023F0F9EC3AF0000E02011C6F280E186FF7
:10464800760E196FE80E1A6F190E1B6F010EE16FC7
:10465800000EDF6FA7EC30F0000E0201A66F000E0F
:10466800A56F1D0E0001606F020E616F000E636F73
:10467800000E626F000E656F690E646F45EC45F0C1
:10468800030E0201956FE80E946F070E976FD00E18
:10469800966F130E996F880E986F170E9B6F700E9A
:1046A8009A6F070EA16FD00EA06F200EA36F400E59
:1046B800A26F400E9D6F000E9C6F400E9F6F000E04
:1046C8009E6F000E0001A76F000EA66F3EEC2AF049
:1046D80012007BC021F17CC022F17DC023F17EC095
:1046E80024F1A80E0101256F610E266F000E276FB9
:1046F800000E286F500E296FC30E2A6F000E2B6F05
:10470800000E2C6F010E396F070E3B6F010E3C6FC8
:10471800010E426F000E436F000E2E6F080E2D6FB4
:104728000C0E3A6F010E3D6F000E3E6F000E416F8A
:10473800C10E306F940E316FC10E326F030E386F99
:10474800340E2F6F000E446F000E456F79C046F18E
:104758007AC047F1000E406F000E3F6F800E536F16
:10476800980E4B6F3A0E4C6F000E4D6F000E4E6F49
:10477800020E546F0B0E556F120E566F000E506FCF
:10478800000E516F4F51D8A426D029EC3AF0010100
:10479800486F29EC3AF00101496F29EC3AF0010120
:1047A8004A6F8C0E0001606F880E616F000E626F99
:1047B8000101495140EC43F0E20E0001606F840EA4
:1047C800616F000E626F01014A5140EC43F0010E27
:1047D80001014F6F0BD04851B8EC46F00101495127
:1047E800B8EC46F001014A51B8EC46F0B7EC42F09B
:1047F800000E0001656F010E666F010E28EC30F0A7
:1048080021C16DF022C16EF023C16FF024C170F098
:104818000DEC33F0420E0001626F3B0E55EC47F091
:104828003B0EA4EC46F000017F6F7FBBF9D7230E47
:10483800626F0C0E55EC47F01E0E0001626F0D0EF4
:1048480055EC47F0AA0E0001626F1F0E55EC47F0B9
:104858008F0E0001626F350E55EC47F0FF0E000118
:10486800626F320E55EC47F0400E0001626F310E58
:1048780055EC47F0010E0001656F010E666F000EE2
:1048880028EC30F0FF0E0001626F230E55EC47F064
:10489800420EA4EC46F00101526F120024EC47F0DE
:1048A80060C019F161C01AF14704D8A471D0000E94
:1048B800476E3CC06CF03DC06DF03EC06EF03FC02E
:1048C8006FF000016C1F6D1F6E1F6F1F6C2B000EA9
:1048D8006D236E236F234450706F4550716F726B58
:1048E800736B701F711F721F731F702B000E712363
:1048F800722373230101195100017025746F01019E
:104908001A5100017121756F000E7221766F000E29
:104918007321776F6C517425786F6D517521796F9C
:104928006E5176217A6F6F5177217B6F40507825D1
:104938007C6F415079217D6F42507A217E6F4350C0
:104948007B217F6F000E7C250101086F000E00019E
:104958007D210101096F010E00017E2101010A6F0D
:10496800000E00017F2101010B6F19C13CF01AC133
:104978003DF03E6A3F6A000E406E000E416E000E2A
:10498800426E000E436E000E456E000E446E49D016
:104998003CC06CF03DC06DF03EC06EF03FC06FF0A3
:1049A80000016C1F6D1F6E1F6F1F6C2B000E6D2397
:1049B8006E236F2344C070F045C071F0701F711FE3
:1049C800704B712B010119510001702701011A5117
:1049D8000001712370516C25726F71516D21736FD5
:1049E800000E6E21746F000E6F21756F4050722596
:1049F8000101086F4150000173210101096F425004
:104A08000001742101010A6F435000017521010161
:104A18000B6F08513C2609513D220A513E220B5189
:104A28003F2208C168F009C169F00AC16AF00BC1E8
:104A38006BF01200000E0001DA6FE00E606F040EDA
:104A4800616F000E636F000E626F010E656F0F0ECF
:104A5800646F45EC45F00001D89BD89DD89FFC0EAB
:104A6800D817D895D897D899DA51010DE00EF324C4
:104A7800D96E040EF420DA6ED8C0DFFFDA2B000EF0
:104A8800D96F070ED96501D022D0D951D06FD16B1B
:104A9800D01FD11FD04BD12B070ED027000ED1230A
:104AA800520ED025D96E020ED121DA6ED951DAC054
:104AB800D2F0D36BD227000ED323E00ED225E96EB5
:104AC800040ED321EA6EDFCFEFFFD92BDAD7DA5104
:104AD800080FDA6F000ED96F070ED96501D022D002
:104AE800D951D06FD16BD01FD11FD04BD12B070E0E
:104AF800D027000ED1235A0ED025D96E020ED1210F
:104B0800DA6ED951DAC0D2F0D36BD227000ED32394
:104B1800E00ED225E96E040ED321EA6EDFCFEFFF57
:104B2800D92BDAD7DA51080FDA6FFF0EAE6FAD69FD
:104B380013EC47F0ADC0D2F2AEC0D3F20001DA51A7
:104B4800010DE00EF324606F040EF420616FD20EA5
:104B5800626F020E636F000E656F020E646F6CEC7D
:104B68003FF00001DA51020FDA6F420EC76F020EF2
:104B7800C86FE00EC96F040ECA6FDAC0CBF0A9EC9B
:104B88003EF0C7C0D4F0C8C0D5F0C9C0D6F0CAC07E
:104B9800D7F00001DA51010DE00EF324606F040E26
:104BA800F420616FD40E626F000E636F000E656FA4
:104BB800040E646F6CEC3FF00001DA51040FDA6FF9
:104BC800DA511200000E0001A46F000EA56F000E4E
:104BD800A66F93C060F0616B000E636F100E626F7A
:104BE8003EEC3BF000016051A46F010EA56F5AD056
:104BF80095C06BF096C06CF097C06DF098C06EF0E1
:104C0800A5C06FF0010E706F9EC071F094511BEC3F
:104C180032F0570E00017D6F010E7E6F99C07FF054
:104C28009AC080F064EC44F0000E0001A66F0F0EED
:104C3800A66501D036D09B51010DF3509C25D96E45
:104C4800F4509D21DA6EF00E9F6FFF0EA06FA551F4
:104C5800A16FA26BA13BA23BF00EA217A1510F0BB3
:104C6800A213F00EA117A651A127000EA2239F514F
:104C7800A127A051A223A1519125E96EA251922109
:104C8800EA6EEF50A36FA651010D570EF324E96E9B
:104C9800010EF420EA6EEF50A319DF6E9B2BA62BB2
:104CA800C6D7A52BA551A45DD8B0A2D793C09FF0B5
:104CB8000F0E9F17D8B4120095C06BF096C06CF019
:104CC80097C06DF098C06EF0A5C06FF0010E706FC0
:104CD8009EC071F094511BEC32F0570E00017D6FAD
:104CE800010E7E6F99C07FF09AC080F064EC44F0AA
:104CF800000E0001A66F23D09B51010DF3509C2597
:104D0800D96EF4509D21DA6EA451100DA651F326E8
:104D1800000EF422F3509125E96EF4509221EA6EC8
:104D2800EF509F6FA651010D570EF324E96E010E47
:104D3800F420EA6EEF509F19DF6E9B2BA62B93C0D1
:104D48009FF00F0E9F179F51A65DD8B01200D4D7C1
:104D580000019E699F69A069A169000EA26F7CD0BD
:104D68000001A2510E0D040EF326000EF422000ECF
:104D7800F324D96E040EF420DA6EDE04D8A46AD0C7
:104D8800A2510E0D080EF326000EF422000EF32495
:104D9800D96E040EF420DA6EDE50DE10DE10DE105E
:104DA800D8B458D0A2510E0D080EF326000EF422E6
:104DB800000EF324D96E040EF420DA6EDE509E5DE8
:104DC800DE509F59DE50A059DE50A159D8A042D0DC
:104DD800A2510E0D050EF326000EF422000EF32448
:104DE800D96E040EF420DA6E0401DF500F0B0001B7
:104DF8009A6F9A510201DF5DD8A02CD00001A25110
:104E08000E0D050EF326000EF422000EF324D96EC3
:104E1800040EF420DA6E0401DF380F0B00019A6FDC
:104E28000201DF5100019A5DD8A014D0A2510E0DE5
:104E3800080EF326000EF422000EF324D96E040E99
:104E4800F420DA6EDECF9EF0DECF9FF0DECFA0F04A
:104E5800DECFA1F00001A22BA2510201ED5DD8B076
:104E68007FD70251F00B0609026F9EC09AF09FC0CF
:104E78009BF0A0C09CF0A1C09DF00C0ED890000142
:104E88009A379B379C379D37E82EF8D79AC060F041
:104E98009BC061F09CC062F09DC063F07D0E646FA2
:104EA800000E656F000E666F000E676FC4EC3BF076
:104EB80060C06DF061C06EF062C06FF063C070F0EA
:104EC8000201E65162EC43F00201E6514BEC39F085
:104ED8001200050EE126000EE222020103A103A53D
:104EE8002CD0FF0EE36A0FD0FF0EE350020DA80E80
:104EF800F324D96E020EF420DA6E020EDE18D8B44E
:104F080009D0FF0EE32AFF0EE3CF48F0A751485C13
:104F1800D8A0EAD7FF0EE350A719D8A40ED0A751FE
:104F2800020DA80EF324D96E020EF420DA6E020EDA
:104F3800DF6E100EA76101D0A72B03A57BD0CF5140
:104F480007E1CC29FF0ECD590F0ECE59D8A024D099
:104F5800CCC260F0CDC261F0CEC262F0CFC263F0C5
:104F68007D0E0001646F000E656F000E666F000E07
:104F7800676FC4EC3BF060C050F061C051F062C094
:104F880052F063C053F00C0ED8905036513652365A
:104F98005336E82EF9D72BD0CCC250F0CDC251F001
:104FA800CEC252F0CFC253F00C0ED89050365136C4
:104FB80052365336E82EF9D750C060F051C061F030
:104FC80052C062F053C063F07D0E0001646F000EA2
:104FD800656F000E666F000E676FC4EC3BF060C033
:104FE80050F061C051F062C052F063C053F0FB0E44
:104FF80050C0E3FFFC0E51C0E3FFFD0E52C0E3FFBB
:10500800FE0E53C0E3FFE150FB0FD96EE250DA6E9B
:10501800FF0EDA22DECF6DF0DECF6EF0DECF6FF05E
:10502800DECF70F00201E75162EC43F00201E75174
:105038004BEC39F0FA0EE126FF0EE222120085EC65
:1050480047F001C019F102C01AF14704D8A466D08C
:10505800000E476E3CC00DF03DC00EF03EC00FF094
:105068003FC010F00D1E0E1E0F1E101E0D2A000E42
:105078000E220F2210224450116E4550126E136AF0
:10508800146A111E121E131E141E112A000E12225B
:1050980013221422010119511124156E1A511220DC
:1050A800166E000E1320176E000E1420186E0D5089
:1050B8001524196E0E5016201A6E0F5017201B6EED
:1050C800105018201C6E405019241D6E41501A2093
:1050D8001E6E42501B201F6E43501C20206E000E77
:1050E8001D24086F000E1E20096F010E1F200A6F75
:1050F800000E20200B6F19C13CF01AC13DF03E6A2A
:105108003F6A000E406E000E416E000E426E000EA9
:10511800436E000E456E000E446E3ED03CC00DF04E
:105128003DC00EF03EC00FF03FC010F00D1E0E1E29
:105138000F1E101E0D2A000E0E220F22102244C030
:1051480011F045C012F0111E121E114A122A010157
:10515800195111261A51122211500D24136E125092
:105168000E20146E000E0F20156E000E1020166E05
:1051780040501324086F41501420096F42501520E5
:105188000A6F435016200B6F08513C2609513D22E7
:105198000A513E220B513F2208C109F009C10AF009
:1051A8000AC10BF00BC10CF012000001626F000184
:1051B80062510E0D040EF326000EF422000EF324A5
:1051C800D96E040EF420DA6E60C0DFFF62510E0D56
:1051D800040EF326000EF422000EF324D96E040EFA
:1051E800F420DA6EDF50D8A410D062510E0D080EEC
:1051F800F326000EF422000EF324D96E040EF420D8
:10520800DA6EDE6ADE6ADE6ADD6A000E636F6DD012
:1052180063510E0D050EF326000EF422000EF32442
:10522800D96E040EF420DA6E0401DF500F0B000172
:10523800616F0201EB510001615DD8B020D063516C
:105248000E0D040EF326000EF422000EF324D96E80
:10525800040EF420DA6EDE04D8A411D063510E0DCA
:10526800050EF326000EF422000EF324D96E040E68
:10527800F420DA6E0401DF500F0B0201EB6F00011E
:1052880063510E0D050EF326000EF422000EF324D2
:10529800D96E040EF420DA6E0401DF380F0B020118
:1052A800EC6121D0000163510E0D040EF326000EAF
:1052B800F422000EF324D96E040EF420DA6EDE0414
:1052C800D8A411D063510E0D050EF326000EF4225A
:1052D800000EF324D96E040EF420DA6E0401DF38D0
:1052E8000F0B0201EC6F0001632B0201ED5100016D
:1052F800635DD8A08DD70201DF51EC5DD8A0ECC268
:10530800DFF2EB51DF5DD8B01200EBC2DFF2120022
:10531800000120EE01F06051D9266151DA22DF50F8
:10532800626F20EE05F06051D9266151DA2200EE55
:1053380001F06051E9266151EA22DFCFEFFF20EE4C
:1053480009F06051D9266151DA2200EE05F060516A
:10535800E9266151EA22DFCFEFFF20EE0DF0605120
:10536800D9266151DA2200EE09F06051E92661512F
:10537800EA22DFCFEFFF20EE0DF06051D926615110
:10538800DA2262C0DFFF20EE02F06051D9266151B7
:10539800DA22DF50626F20EE0AF06051D92661519F
:1053A800DA2200EE02F06051E9266151EA22DFCFED
:1053B800EFFF20EE0AF06051D9266151DA2262C06F
:1053C800DFFF20EE0EF06051D9266151DA22DF505E
:1053D800626F20EE06F06051D9266151DA2200EEA4
:1053E8000EF06051E9266151EA22DFCFEFFF20EE8F
:1053F80006F06051D9266151DA2262C0DFFF20EE43
:1054080003F06051D9266151DA22DF50626F20EE35
:105418000FF06051D9266151DA2200EE03F0605195
:10542800E9266151EA22DFCFEFFF20EE0BF0605151
:10543800D9266151DA2200EE0FF06051E926615158
:10544800EA22DFCFEFFF20EE07F06051D926615145
:10545800DA2200EE0BF06051E9266151EA22DFCF33
:10546800EFFF20EE07F06051D9266151DA2262C0C1
:10547800DFFF1200A6C09AF0A7C09BF000019C6B4A
:105488009D6BE80E9E6F030E9F6F000EA06F000EBF
:10549800A16FB1EC40F09AC0CCF29BC0CDF29CC099
:1054A800CEF29DC0CFF20001A651A711D8A42BD0EF
:1054B8000201E751B8EC46F002010395000E000125
:1054C800B06F1AD0B051020DA80EF324D96E020E97
:1054D800F420DA6E020EDE18D8A40CD0B051020DFA
:1054E800A80EF324D96E020EF420DA6EFF0EDF6EDA
:1054F8000201A7070001B02B0201A7510001B05D0E
:10550800D8B01200DFD70201038502A91200CF51DB
:1055180007E1CC29FF0ECD590F0ECE59D8A01DD0CA
:10552800CCC260F0CDC261F0CEC262F0CFC263F0EF
:105538007D0E0001646F000E656F000E666F000E31
:10554800676FC4EC3BF00C0ED890000160376137F0
:1055580062376337E82EF8D723D0CCC2A8F0CDC283
:10556800A9F0CEC2AAF0CFC2ABF00C0ED8900001C1
:10557800A837A937AA37AB37E82EF8D7A8C060F004
:10558800A9C061F0AAC062F0ABC063F07D0E646F81
:10559800000E656F000E666F000E676FC4EC3BF07F
:1055A80060C0ACF061C0ADF062C0AEF063C0AFF0F7
:1055B800ACC06DF0ADC06EF0AEC06FF0AFC070F0B3
:1055C8000201E75162EC43F00201E7514BEC39F07C
:1055D80012000001626F070E0201EB6F000EEC6F04
:1055E800000162510E0D050EF326000EF422000E86
:1055F800F324D96E040EF420DA6E60C0DFFF625126
:105608000E0D0D0EF326000EF422000EF324D96EB3
:10561800040EF420DA6E000EDB82000E636F6DD08C
:1056280063510E0D050EF326000EF422000EF3242E
:10563800D96E040EF420DA6E0401DF500F0B00015E
:10564800616F0201EB510001615DD8B020D0635158
:105658000E0D040EF326000EF422000EF324D96E6C
:10566800040EF420DA6EDE04D8A411D063510E0DB6
:10567800050EF326000EF422000EF324D96E040E54
:10568800F420DA6E0401DF500F0B0201EB6F00010A
:1056980063510E0D050EF326000EF422000EF324BE
:1056A800D96E040EF420DA6E0401DF380F0B020104
:1056B800EC6121D0000163510E0D040EF326000E9B
:1056C800F422000EF324D96E040EF420DA6EDE0400
:1056D800D8A411D063510E0D050EF326000EF42246
:1056E800000EF324D96E040EF420DA6E0401DF38BC
:1056F8000F0B0201EC6F0001632B0201ED51000159
:10570800635DD8A08DD70201DF51EC5DD8A0ECC253
:10571800DFF2EB51DF5DD8B01200EBC2DFF212000E
:10572800000E0001B86F23EEA0F000EE98F00F0E07
:10573800DBCFEBFFE806FCE2A80E606F000E616F9E
:10574800000E636F000E626F000E656F100E646FBF
:1057580045EC45F0A80E00017D6F000E7E6F91C0EC
:105768007FF092C080F064EC44F00001A8BF0DD037
:10577800A80E606F000E616F93C062F094C063F072
:10578800100E646FDAEC3EF02AD0A80E0001606FAC
:10579800000E616F93C062F094C063F0100E646FE6
:1057A800DAEC3EF0000E0001B86F0F0EB86501D0BC
:1057B80016D0B851010D980EF324D96E000EF420BE
:1057C800DA6EDF50976FB851010DF3509325D96EFB
:1057D800F4509421DA6E9751DF1AB82BE6D793C0AC
:1057E800D9FF94C0DAFF0001DFBE0DD093C060F08E
:1057F80094C061F095C062F096C063F0100E646FBB
:10580800DAEC3EF0120093C060F094C061F095C0ED
:1058180062F096C063F0100E0001646FDAEC3EF09F
:10582800000E0001B86F0F0EB86501D01200B85114
:10583800010DF3509525D96EF4509621DA6EB851C2
:10584800010D980EF324E96E000EF420EA6EEF5075
:10585800976FB851010DF3509525E96EF4509621D4
:10586800EA6EEF509719DF6EB82BDDD7E652E65295
:10587800E652E652020100950289F00E0217D06B3B
:10588800D16BEE6B03A57BD0CF5107E1CC29FF0E7E
:10589800CD590F0ECE59D8A024D0CCC260F0CDC2BD
:1058A80061F0CEC262F0CFC263F07D0E0001646F7A
:1058B800000E656F000E666F000E676FC4EC3BF05C
:1058C80060C050F061C051F062C052F063C053F044
:1058D8000C0ED8905036513652365336E82EF9D73A
:1058E8002BD0CCC250F0CDC251F0CEC252F0CFC2B4
:1058F80053F00C0ED8905036513652365336E82EA7
:10590800F9D750C060F051C061F052C062F053C086
:1059180063F07D0E0001646F000E656F000E666F08
:10592800000E676FC4EC3BF060C050F061C051F0EE
:1059380062C052F063C053F0FC0E50C0E3FFFD0E8E
:1059480051C0E3FFFE0E52C0E3FFFF0E53C0E3FF5A
:10595800E150FC0FD96EE250DA6EFF0EDA22DECF8C
:105968006DF0DECF6EF0DECF6FF0DECF70F00201AB
:10597800E75162EC43F00201E7514BEC39F00101C9
:1059880006510711D8B40CD001D80AD00500FA6E18
:105998000651FD6E0751FE6EFF6AFA50010E1200A5
:1059A800FB0EE126FF0EE22212003F0EA4EC46F0A9
:1059B8000001EF6FEFA7120039C165F0000E666FA6
:1059C800000E28EC30F0010144914A51B8EC46F041
:1059D800010144B91200485107EC44F00001945108
:1059E80008E11F0E915DAC0E9259DF0E9359D8A0B5
:1059F80021D00101485107EC44F00D0E06D00001FA
:105A0800D8909433933392339133E82EF8D791C0DA
:105A18009AF092C09BF093C09CF094C09DF07D0ECC
:105A28009E6F000E9F6F000EA06F000EA16FB1EC6D
:105A380040F021D00101485107EC44F091C09AF0A0
:105A480092C09BF093C09CF094C09DF07D0E000125
:105A58009E6F000E9F6F000EA06F000EA16FB1EC3D
:105A680040F00D0E06D00001D8909D339C339B3337
:105A78009A33E82EF8D79AC0EBF09BC0ECF09CC0A4
:105A8800EDF09DC0EEF0EBC0E3F0ECC0E4F0EDC04B
:105A9800E5F0EEC0E6F00001E31FE41FE51FE61F96
:105AA800E32B000EE423E523E623200EE325E76F2E
:105AB8004E0EE421E86F000EE521E96F000EE621A5
:105AC800EA6F01014851B8EC46F0E7C0BBF0E8C006
:105AD800BCF096EC06F012000001B86F000E000151
