:040000003FEF00F0DE
:10000800FACF34F0FBCF35F0E1CF36F0E2CF37F05E
:10001800D9CF38F0DACF39F0F3CF3AF0F4CF3BF05C
:1000280019EEE8F0F0B6F0A003D02AEC63F012D095
:10003800F0B8F0A203D026EC63F00CD0F2B6F2A030
:1000480003D0FDEC62F006D0F2BC9DA003D09EB0B8
:10005800A5EC61F03BC0F4FF3AC0F3FF39C0DAFF0A
:1000680038C0D9FF37C0E2FF36C0E1FF35C0FBFF1B
:1000780034C0FAFF110017EE3EF04EEF42F03AECB2
:1000880063F0020107B162EF06F0F2C1D9FFF3C1D4
:10009800DAFFDF500001E16FE139E832070BE806CB
:1000A800D8A4D8D002012151D8A4D4D00101F40594
:1000B800000128D0E751DA6FDB6BDA1FDB1FDA4B60
:1000C800DB2B0101F4510001DC6FDD6BDA51DC2719
:1000D800DB51DD23DC510101F22500017D6FDD518B
:1000E8000101F32100017E6F460E7F6F020E806FC3
:1000F800F6EC5BF0100E0001E76503D0100EE75F29
:1001080002D0000EE76FE751D8A4D4D7460EC76FC8
:10011800020EC86FF2C1C9F0F3C1CAF00101F4516F
:10012800FC0F0001CB6FE6EC54F0C7C0EAF0C8C082
:10013800EBF0C9C0ECF0CAC0EDF0F2C16BF0F3C14E
:100148006CF0F4C16DF0EEEC56F06BC0E2F06CC0F0
:10015800E3F06DC0E4F06EC0E5F00001EA51E21989
:100168000AE1EB51E31907E1EC51E41904E1ED511F
:10017800E519D8B411D0020106510F0B050AD8B4FD
:1001880008D006510F0B030AD8A41200F551D8B4B1
:100198001200D7EC5CF01200020106510F0B030AA3
:1001A800D8A403D0E751A6EC5EF0F2C1EEF0F3C19B
:1001B800EFF0000120EE07F0EE51D926EF51DA22D8
:1001C800DECF22F2DECF23F2DECF24F2DECF25F21D
:1001D80020EE0CF0EE51D926EF51DA22DF500F0B4A
:1001E8003AEC5BF0000120EE0BF0EE51D926EF510E
:1001F800DA22DF38070B606F20EE0BF0EE51D926BC
:10020800EF51DA22DF500F0BA5EC60F0EEC0A6F03C
:10021800EFC0A7F00101F45120EC31F0EEC091F0ED
:10022800EFC092F06BEC50F0000EE66E32EC3EF050
:10023800000E02010A6F000E0B6F000E0C6F000E0D
:100248000D6F000E0E6F000E0F6F000E106F000E78
:10025800116F12000001E139E832070B030AD8B424
:1002680007D0E139E832070B050AD8A45FEF06F09A
:10027800000E0201AB6FF2C1F1F0F3C1F2F0020E11
:100288001619D8A410D2000120EE01F0F151D92698
:10029800F251DA2202016651DE1809E16751DE18CF
:1002A80006E16851DE1803E16951DE18D8A4FBD1D4
:1002B80008A5F9D1F1C060F0F2C061F0F0EC50F09F
:1002C8000009D8A408D002010651F00B0909066FED
:1002D80070EC51F01200000120EE06F0F151D92621
:1002E800F251DA22DECFDAF0DDCFDBF0DAC06BF0E4
:1002F800DBC06CF06D6B6E6B0101F451FC0F0001FB
:100308006F6F490E706F010E716F010ECFEC45F0E3
:100318002F0E0001606F060E616FC80E626F030E2C
:10032800636F000E656F100E646FA9EC55F03F0EF9
:100338000001606F060E616FF2C162F0F3C163F0F5
:10034800FC0E0101F4250001646F656BFF0E652347
:10035800A9EC55F06A0E0001B96F020EBA6FC80E0B
:10036800BB6F030EBC6F2F0EBD6F060EBE6F010173
:10037800F4510C0F0001BF6F80EC1DF0EA0E000174
:10038800606F000E616FC80E626F030E636F000E20
:10039800656F040E646FA9EC55F0F2C16BF0F3C100
:1003A8006CF0F4C16DF0EEEC56F06BC0E2F06CC08E
:1003B800E3F06DC0E4F06EC0E5F00001E251EA1927
:1003C8000AE1E351EB1907E1E451EC1904E1E551C5
:1003D800ED19D8B408D002010651F00B0909066FCF
:1003E80070EC51F01200000120EE06F0F151D92610
:1003F800F251DA2202011251DE5C1351DE58D8A004
:1004080050D0000120EE06F0F151D926F251DA223F
:10041800DECFDAF0DDCFDBF022EE12F0DECFDCF05B
:10042800DDCFDDF0DC1FDD1FDC4BDD2BDA51DC27F7
:10043800DB51DD23DC510201A25D0001DD51020127
:10044800A359D8B022D001010C510D11D8B415D040
:10045800000E0001606F000E616F000E626F050EE6
:10046800636F01D80AD00500FA6E01010C51FD6EC8
:100478000D51FE6EFF6AFA50120002010651F00B90
:100488000909066F70EC51F01200000120EE06F029
:10049800F151D926F251DA22DECF12F2DDCF13F272
:1004A8003AD0000120EE06F0F151D926F251DA22B5
:1004B800DE50DE10D8A40DD0020112290AE113295A
:1004C800D8A407D0000E136F000E126F144B152B13
:1004D80022D001010C510D11D8B415D0000E000125
:1004E800606F000E616F000E626F050E636F01D8BA
:1004F8000AD00500FA6E01010C51FD6E0D51FE6E19
:10050800FF6AFA50120002010651F00B0909066F42
:1005180070EC51F012000201122929E1132927E198
:10052800142925E11529D8A422D001010C510D1157
:10053800D8B415D0000E0001606F000E616F000E78
:10054800626F050E636F01D80AD00500FA6E0101CB
:100558000C51FD6E0D51FE6EFF6AFA501200020139
:100568000651F00B0909066F70EC51F012000201F8
:1005780006510F0B080AD8A408D0E851A6EC5EF083
:100588000201E951A6EC5EF009D0020106510F0BF9
:10059800030AD8A403D0E951A6EC5EF0080E0101C5
:1005A800F225F26F000EF321F36FF4510001DA6FB8
:1005B800DB6B20EE05F0F151D926F251DA22DF503B
:1005C8000F0BDC6FDD6B0C0EDC27000EDD23DA5120
:1005D800DC1904E1DB51DD19D8B437D0F2C1D9FFF9
:1005E800F3C1DAFFDF50DF6F0101F24BF32BF45157
:1005F800F40F0001F06F190EE66FF2C191F0F3C12C
:1006080092F0F005936F010E946F12C295F013C229
:1006180096F014C297F015C298F07A0E996F020EF0
:100628009A6FE6C09BF02F0E9C6F060E9D6F010E11
:100638009E6F3EEC37F0FF0E0101F2250001E86FD6
:10064800FF0E0101F321000105D0000EF06F000E2E
:10065800E86F000EE96F020107830691069306957D
:10066800069701010C510D11D8B415D0E8C060F0FF
:10067800E9C061F0F0C062F0010E0001636F01D8BB
:100688000AD00500FA6E01010C51FD6E0D51FE6E87
:10069800FF6AFA50120002010651F00B0909066FB1
:1006A80070EC51F01200000120EE01F0F151D92652
:1006B800F251DA2202012251DE180AE12351DE1832
:1006C80007E12451DE1804E12551DE18D8B40ED014
:1006D80031EC51F0020E02011619D8A4120006518D
:1006E800F00B0909066F70EC51F01200000120EEC2
:1006F80006F0F151D926F251DA22DECFDAF0DDCF59
:10070800DBF0DAC06BF0DBC06CF06D6B6E6B010177
:10071800F451FC0F00016F6F490E706F000E716F7E
:10072800010ECFEC45F02F0E0001606F060E616FD1
:10073800C80E626F030E636F000E656F100E646F54
:10074800A9EC55F03F0E0001606F060E616FF2C113
:1007580062F0F3C163F0FC0E0101F4250001646F3F
:10076800656BFF0E6523A9EC55F0260E0001B96FE5
:10077800020EBA6FC80EBB6F030EBC6F2F0EBD6F93
:10078800060EBE6F0101F4510C0F0001BF6F80EC23
:100798001DF0EA0E0001606F000E616FC80E626FF7
:1007A800030E636F000E656F040E646FA9EC55F0BD
:1007B800F2C16BF0F3C16CF0F4C16DF0EEEC56F0E1
:1007C8006BC0E2F06CC0E3F06DC0E4F06EC0E5F021
:1007D8000001E251EA190AE1E351EB1907E1E4519A
:1007E800EC1904E1E551ED19D8B40ED031EC51F013
:1007F800020E02011619D8A412000651F00B0909BD
:10080800066F70EC51F01200000120EE06F0F15175
:10081800D926F251DA2202010E51DE5C0F51DE5860
:10082800D8A05DD0000120EE06F0F151D926F25192
:10083800DA22DECFDAF0DDCFDBF022EE0EF0DECF0B
:10084800DCF0DDCFDDF0DC1FDD1FDC4BDD2BDA510A
:10085800DC27DB51DD23DC510201A05D0001DD5105
:100868000201A159D8B02FD004910691069306959C
:10087800069701010C510D11D8B417D00201049B41
:10088800000E0001606F000E616F000E626F000EB7
:10089800636F01D80AD00500FA6E01010C51FD6E94
:1008A8000D51FE6EFF6AFA50120002010793088389
:1008B800020E1619D8A412000651F00B0909066F8A
:1008C80070EC51F01200000120EE06F0F151D9262B
:1008D800F251DA22DECF0EF2DDCF0FF22ED0000178
:1008E80020EE06F0F151D926F251DA22DE50DE1060
:1008F800D8A415D002010E2912E10F29D8A40FD0CF
:10090800000120EE06F0F151D926F251DA22DECFAD
:100918000EF2DDCF0FF20201104B112B0ED031EC8D
:1009280051F0020E02011619D8A412000651F00B5C
:100938000909066F70EC51F0120002010E2913E14B
:100948000F2911E110290FE11129D8A40CD008832F
:10095800020E1619D8A412000651F00B0909066FE9
:1009680070EC51F01200020106510F0B030AD8A4D3
:1009780003D0E951A6EC5EF0010E0201DC6FF1C074
:1009880060F0F2C061F037EC56F0000120EE05F09F
:10099800F151D926F251DA22DF500F0B0009D8B4F1
:1009A80016D0080EF125B06F000EF221B16F20EEBF
:1009B80005F0F151D926F251DA22DF500F0BB26F50
:1009C800D6EC25F0B0C0F2F1B1C0F3F107D0080EB3
:1009D8000101F225F26F000EF321F36F0101F451CA
:1009E8000001DA6FDB6B20EE05F0F151D926F251E8
:1009F800DA22DF500F0BDC6FDD6B0C0EDC27000EEC
:100A0800DD23DA51DC1904E1DB51DD19D8B498D0C3
:100A1800F2C1D9FFF3C1DAFFDF50DF6F0101F24BFA
:100A2800F32B000120EE05F0F151D926F251DA221C
:100A3800DF500F0B00080101F425F40F0001F06FDF
:100A480020EE05F0F151D926F251DA22DF500F0BD2
:100A5800190FE66FDF51D8B428D0F2C191F0F3C175
:100A680092F0F005936F010E946F0EC295F00FC2CD
:100A780096F010C297F011C298F0360E996F020ED8
:100A88009A6FE6C09BF02F0E9C6F060E9D6F000EAE
:100A98009E6F3EEC37F0FF0E0101F2250001E86F72
:100AA800FF0E0101F321000150D00101F4510001B2
:100AB800DA6FDB6B20EE05F0F151D926F251DA221C
:100AC800DF500F0BDC6FDD6B0D0EDC27000EDD2316
:100AD800DA51DC5DDD51800ADE6FDB51800ADE59B8
:100AE800D8B02BD0F2C191F0F3C192F0F005936F1A
:100AF800010E946F0EC295F00FC296F010C297F0D7
:100B080011C298F0260E996F020E9A6FE6C09BF0FC
:100B18002F0E9C6F060E9D6F000E9E6F3EEC37F0F9
:100B2800F2C1B0F0F3C1B1F00001F005B26FD6EC3C
:100B380025F0B0C0F2F1B1C0F3F1000E000101D010
:100B4800000EF06F000EE86F000EE96F010E020153
:100B5800DC6F000ED56F000ED46F000EF26F049993
:100B6800078304A155D0000120EE05F0F151D926E4
:100B7800F251DA22DFAA49D00201049106910693C4
:100B88000695069701010C510D11D8B417D0020132
:100B9800049BE8C060F0E9C061F0F0C062F0010EAB
:100BA8000001636F01D80AD00500FA6E01010C51EB
:100BB800FD6E0D51FE6EFF6AFA5012000201079396
:100BC80006BB04BB6CD004B302D004A768D0010EE6
:100BD8000001AF6FE00EB06F000EB16F0201F1516E
:100BE80097EC40F00009D8A40DD0000E0001D36F97
:100BF800000ED46F000ED56F000ED66F000EDCEC21
:100C080049F048D004EC38F04AD0D4EC52F047D040
:100C1800069106930695069701010C510D11D8B45B
:100C280017D00201049BE8C060F0E9C061F0F0C091
:100C380062F0010E0001636F01D80AD00500FA6E58
:100C480001010C51FD6E0D51FE6EFF6AFA50120043
:100C5800020106BB04BB23D004B302D004A71FD0F3
:100C6800010E0001AF6FE00EB06F000EB16F020110
:100C7800F15197EC40F00009D8A40FD0000E000104
:100C8800D36F000ED46F000ED56F000ED66F000E16
:100C9800DCEC49F00201049702D004EC38F0020EB3
:100CA80002011619D8A412000651F00B0909066FA3
:100CB80070EC51F0120031EC51F0120001010C51AE
:100CC8000D11D8B4120037EC63F00001DA6FDAB70F
:100CD80014D0F2C160F0F3C161F0F4C162F0030E08
:100CE800636F01D812000500FA6E01010C51FD6E08
:100CF8000D51FE6EFF6AFA501200F2C160F0F3C1A6
:100D080061F0F4C162F0020E0001636F01D81200B5
:100D18000500FA6E01010C51FD6E0D51FE6EFF6A61
:100D2800FA501200910E0101A06F010EA16F4BEF56
:100D38000BF0250EB919D8B405D0B95146EC62F0BC
:100D48004BEF0BF0000E0101B36F000EB26F000EF7
:100D5800AB6F000EAA6F8FC1F6FF90C1F7FFF86A5C
:100D68000800F55005EC5FF0D8A03AD0000E01015C
:100D7800B36F000EB26FB2C16EF0B3C16FF0000E68
:100D88000001716F0A0E706F7EEC5EF06EC0B2F1FA
:100D98006FC0B3F1D00E0001F96FFF0EFA6F8FC16B
:100DA800F6FF90C1F7FFF86A0800F550FB6FFC6B7F
:100DB800F951FB27FA51FC23FB510101B22700012D
:100DC800FC510101B3238F4B902B8FC1F6FF90C1CB
:100DD800F7FFF86A0800F55005EC5FF0D8B0CBD7FC
:100DE8008FC1F6FF90C1F7FFF86A0800F5502E0A88
:100DF800D8A436D00101AB8D8F4B902B000EB86F65
:100E0800000EB76F21D0B7C16EF0B8C16FF0000EF9
:100E18000001716F0A0E706F7EEC5EF08FC1F6FFF5
:100E280090C1F7FFF86A0800F55000016E27000E20
:100E38006F23D00E6E250101B76FFF0E00016F21E1
:100E48000101B86F8F4B902B8FC1F6FF90C1F7FF50
:100E5800F86A0800F55005EC5FF0D8A051D0D3D758
:100E6800000E0101B86F000EB76FAB8949D0AB8592
:100E78005AD0B751B811D8B40AD0A451B75DA5510A
:100E8800B859D8B004D0B7C1A4F1B8C1A5F1B251CE
:100E9800A45DB351A559D8B005D0A451B25FA551EE
:100EA800B35B08D0000EB36F000EB26F03D0200EF4
:100EB80046EC62F00101B207D8A0B307B229F7E106
:100EC800B329D8B40BD0F3D7A2C1D9FFA3C1DAFF95
:100ED800DF5046EC62F00101A24BA32BA407D8A077
:100EE800A507A429F1E1A529D8B4D1D3EDD7B90E26
:100EF800A26F010EA36F000EA56F010EA46FB9D7E4
:100F08008FC1F6FF90C1F7FF01018F4B902BF86A54
:100F18000800F5CFB9F1B951000AD8B41200660A31
:100F2800D8B4A5D7E4D7070EAB15D8B413D3ABA95B
:100F380004D0000EB86F060EB76FA0C1D9FFA1C1CB
:100F4800DAFFDECFB4F1DECFB5F1DDCFB6F1030EB7
:100F5800A027000EA123B6AF11D0B4C160F0B5C16F
:100F680061F0B6C162F0BAEC5EF060C0B4F161C085
:100F7800B5F162C0B6F1030E0101AA13000EB16FFC
:100F8800000EB06FB451B511B611D8B490D0820E1E
:100F98000001F96FFF0EFA6FB4C1FBF0B5C1FCF0A8
:100FA800B6C1FDF0B7C1FEF0100E05D0D890FE33E3
:100FB800FD33FC33FB33E82EF9D7FB51F92501014A
:100FC800B06F000E0001FA210101B16FB007D8A07F
:100FD800B107B0C16EF0B1C16FF0000E0001716FC2
:100FE800030E706F7EEC5EF06EC0B0F16FC0B1F1B1
:100FF800B0C166F0B1C167F0000E0001696F0A0E5A
:10100800686F28EC50F066C0B0F167C0B1F101011B
:10101800B1AF03D0B007D8A0B107B051000807ECB2
:1010280015F083C0ACF184C0ADF185C0AEF1ACC1A0
:1010380074F0ADC175F0AEC176F0B4C177F0B5C14A
:1010480078F0B6C179F054EC45F074C0ACF175C0D5
:10105800ADF176C0AEF1ACC160F0ADC161F0AEC12A
:1010680062F0000E0001636F800E646F3F0E656FC3
:101078003AEC4EF00001D8B005D00101B007D8A075
:10108800B10715D0ACC160F0ADC161F0AEC162F07E
:10109800000E0001636F200E646F410E656F3AEC1D
:1010A8004EF00001D8A003D00101B04BB12B0101D3
:1010B800B8BF06D0B8511BE10D0EB75DD8B017D038
:1010C800B4C18DF0B5C18EF0B6C18FF0B75160ECE8
:1010D8002BF083C090F084C091F085C092F0D3ECDF
:1010E80034F08DC0B4F18EC0B5F18FC0B6F10101F6
:1010F800B1BF06D0B15121E10A0EB05DD8B01DD004
:10110800B451B511B611D8B459D0B4C183F0B5C132
:1011180084F0B6C185F0D8EC44F000018351841105
:1011280085118611D8A44AD00101B1BF47D0B15169
:1011380004E1020EB05DD8A041D0ACC160F0ADC1F1
:1011480061F0AEC162F0700E0001636F890E646FCA
:10115800400E656F3AEC4EF00001D8B003D00101A3
:10116800F70E02D00101F80EB027FF0EB123B051DF
:1011780007EC15F083C0ACF184C0ADF185C0AEF1C9
:10118800B4C160F0B5C161F0B6C162F0ACC163F042
:10119800ADC164F0AEC165F0D1EC3EF060C0A6F11F
:1011A80061C0A7F162C0A8F163C0A9F1000E0101F6
:1011B800B46F000EB56F000EB66F33D0B4C183F0B4
:1011C800B5C184F0B6C185F0D8EC44F083C0A6F16F
:1011D80084C0A7F185C0A8F186C0A9F1B4C1E4F024
:1011E800B5C1E5F0B6C1E6F0A6C1DBF0A7C1DCF0F9
:1011F800A8C1DDF0A9C1DEF0D9EC55F0DBC0E7F0FD
:10120800DCC0E8F0DDC0E9F019EC5BF0E4C0B4F153
:10121800E5C0B5F1E6C0B6F1000E0101B16F000EF0
:10122800B06F010EB96F0A0EB919D8B41BD0B951F5
:10123800040D3F0EF324F66EFE0EF420F76EF86AE6
:10124800000EF8220900F550A65D0900F550A759CF
:101258000900F550A8590900F550A959D8A002D09D
:10126800B92BE1D7B9C1F9F00001FA6BF9BFFA0758
:101278000101B7510001F9270101B8510001FA2312
:101288000101B0510001F9270101B1510001FA2310
:10129800F9510101B25F0001FA510101B35BB75185
:1012A800B811D8B403D0B207D8A0B307030EAA1553
:1012B8000001F96F000E0101AB150001FA6FF95139
:1012C800FA11D8B408D003D0200E46EC62F0010120
:1012D800B207D8A0B3070101B3BF05D0B351F4E1F9
:1012E800B205D8B0F1D7030EAA150001F96F000EA8
:1012F8000101AB150001FA6FF951FA11D8B44ED0BB
:101308002D0E46EC62F04AD0A6C160F0A7C161F08C
:10131800A8C162F0A9C163F00101B951040D3F0EE3
:10132800F324F66EFE0EF420F76EF86A000EF8222B
:101338000900F5CF64F00900F5CF65F00900F5CF95
:1013480066F00A00F5CF67F0AEEC50F060C0ACF183
:1013580061C0ADF162C0AEF163C0AFF1ACC160F085
:10136800ADC161F0AEC162F0AFC163F00A0E000119
:10137800646F000E656F000E666F000E676F1AECE3
:1013880054F060C0ACF161C0ADF162C0AEF163C0B1
:10139800AFF10101AC51300F46EC62F00101B90721
:1013A800B929D8B408D0B0D7300E46EC62F00101A4
:1013B800B007D8A0B107B1BF05D0B151F5E1B0056C
:1013C800D8B0F2D7B8BF09D0B85104E1090EB75D5B
:1013D800D8A003D0080EB96F02D0B7C1B9F1B9517E
:1013E800B75F000EB9BFFF0EB85BB951D8B403D0D0
:1013F8002E0E46EC62F00101B95107EC15F083C0DE
:101408009DF184C09EF185C09FF1B4C177F0B5C14C
:1014180078F0B6C179F09DC174F09EC175F09FC196
:1014280076F054EC45F074C083F075C084F076C053
:1014380085F0D8EC44F083C0A6F184C0A7F185C03C
:10144800A8F186C0A9F174D0A6C160F0A7C161F067
:10145800A8C162F0A9C163F00101B951040D3F0EA2
:10146800F324F66EFE0EF420F76EF86A000EF822EA
:101478000900F5CF64F00900F5CF65F00900F5CF54
:1014880066F00A00F5CF67F0AEEC50F060C0ACF142
:1014980061C0ADF162C0AEF163C0AFF1ACC160F044
:1014A800ADC161F0AEC162F0AFC163F00A0E0001D8
:1014B800646F000E656F000E666F000E676F1AECA2
:1014C80054F060C0ACF161C0ADF162C0AEF163C070
:1014D800AFF10101AC51300F46EC62F0A6C160F0EB
:1014E800A7C161F0A8C162F0A9C163F00101B951B7
:1014F800040D3F0EF324F66EFE0EF420F76EF86A24
:10150800000EF8220900F5CF64F00900F5CF65F068
:101518000900F5CF66F00A00F5CF67F01AEC54F031
:1015280060C0A6F161C0A7F162C0A8F163C0A9F1CB
:101538000101B907B929D8B408D086D7300E46ECCE
:1015480062F00101B707D8A0B807B751B811D8B4ED
:101558009ED0F4D7B751B811D8A408D0A651A71176
:10156800A811A911D8A402D0B74BB82B800EB9BFC7
:101578007F0E0001F96F0101B751B95DB851800ABA
:101588000001F959D8B003D0B7C1B9F115D001019C
:10159800B851800A0001F96F0101B951B75D800E99
:1015A800B9BF7F0E0001F959D8B006D00101B95171
:1015B800B76FB86BB7BFB8070101B251B311D8B450
:1015C80011D0030EAA150001F96F000E0101AB1529
:1015D8000001FA6FF951FA11D8B404D00101B20729
:1015E800D8A0B3070101ABAD18D0B251B75DB8515F
:1015F800800A0001F96F0101B351800A0001F9590D
:10160800D8B006D00101B751B25FB851B35B05D06D
:10161800000E0101B36F000EB26F800EB9BF7F0ECE
:101628000001F96F0101B251B95DB351800A00019F
:10163800F959D8B008D00101B951B25F000EB9BF4D
:10164800FF0EB35B05D0000E0101B36F000EB26F41
:10165800B251B311D8B40BD0200E46EC62F00101A0
:10166800B207D8A0B307B251B311D8A4F5D7030E67
:10167800AA150001F96F000E0101AB150001FA6F00
:10168800F951FA11D8B403D02D0E46EC62F08FC18F
:10169800F6FF90C1F7FF01018F4B902BF86A080005
:1016A800F5CFB9F1B951D8B412009DEF06F0020197
:1016B80007B1A2D3000E0001D16F000ED26F000E49
:1016C800D36F000ED46F000ED56FDE69DF69E06955
:1016D800E169000E0201F56F0651F00B0209066F71
:1016E800DEC2E2F004A5BAD01B51010DDD0EF324D1
:1016F800F66EFE0EF420F76EF86A000EF822080067
:10170800F5CFBDF09C510001BD25BE6F000EBDBFD9
:10171800FF0E02019D210001BF6FC06BC16B0C0E53
:10172800D890BE37BF37C037C137E82EF9D7BEC00B
:1017380060F0BFC061F0C0C062F0C1C063F07D0E50
:10174800646F000E656F000E666F000E676FAEEC7B
:1017580050F060C06DF061C06EF062C06FF063C0A1
:1017680070F00201E651D5EC5AF002012051010D4A
:10177800DD0EF324F66EFE0EF420F76EF86A000E06
:10178800F8220800F5CFBDF09E510001BD25BE6FBF
:10179800000EBDBFFF0E02019F210001BF6FC06B8D
:1017A800C16B0C0ED890BE37BF37C037C137E82E93
:1017B800F9D7BEC060F0BFC061F0C0C062F0C1C060
:1017C80063F07D0E646F000E656F000E666F000E8D
:1017D800676FAEEC50F060C06DF061C06EF062C033
:1017E8006FF063C070F00201E751D5EC5AF00201C6
:1017F800E6515AEC4DF00201E7515AEC4DF0DFC2C8
:101808009AF0E0C29BF000019C6B9D6BD60E9E6F18
:101818000B0E9F6F000EA06F000EA16F1BEC57F010
:10182800FF0E00019A25D66FFF0E9B21D76FFF0E82
:101838009C21D86FFF0E9D21D96FD6C09AF0D7C0D2
:101848009BF0D8C09CF0D9C09DF0BBC09EF0BCC036
:101858009FF0A06BA16B1BEC57F0D7D002011B5176
:10186800010DDD0EF324F66EFE0EF420F76EF86A15
:10187800000EF8220800F5CFBDF098510001BD25F3
:10188800BE6F000EBDBFFF0E020199210001BF6FA0
:10189800C06BC16B0C0ED890BE37BF37C037C1378D
:1018A800E82EF9D7BEC060F0BFC061F0C0C062F0DA
:1018B800C1C063F07D0E646F000E656F000E666F29
:1018C800000E676FAEEC50F060C06DF061C06EF056
:1018D80062C06FF063C070F00201E851D5EC5AF0B5
:1018E80002012051010DDD0EF324F66EFE0EF420E8
:1018F800F76EF86A000EF8220800F5CFBDF09A518D
:101908000001BD25BE6F000EBDBFFF0E02019B2169
:101918000001BF6FC06BC16B0C0ED890BE37BF37CC
:10192800C037C137E82EF9D7BEC060F0BFC061F03C
:10193800C0C062F0C1C063F07D0E646F000E656FB9
:10194800000E666F000E676FAEEC50F060C06DF071
:1019580061C06EF062C06FF063C070F00201E951BF
:10196800D5EC5AF00201E8515AEC4DF0020116513B
:10197800D8A403D0E9515AEC4DF00001E2510E0D04
:10198800060EF326000EF422000EF324D96E040E80
:10199800F420DA6EDECFBDF0DDCFBEF0BD51BF6FF3
:1019A800BE51C06FC16BC26B010EBF259A6F000E8E
:1019B800C0219B6F000EC1219C6F000EC2219D6F3C
:1019C800DFC29EF0E0C29FF0A06BA16B1BEC57F04A
:1019D800FF0E00019A25D66FFF0E9B21D76FFF0ED1
:1019E8009C21D86FFF0E9D21D96FD6C09AF0D7C021
:1019F8009BF0D8C09CF0D9C09DF0BBC09EF0BCC085
:101A08009FF0A06BA16B1BEC57F00001E2510E0D8B
:101A1800080EF326000EF422000EF324D96E040EED
:101A2800F420DA6E9AC0DEFF9BC0DEFF9CC0DEFFAA
:101A38009DC0DEFF0201ED5118EC5EF00009D8B43C
:101A48008AD00201ED51A6EC5EF00201ED517BEC6B
:101A58005BF091C0DAF092C0DBF093C0DCF094C088
:101A6800DDF00001DD5108E11F0EDA5DAC0EDB5937
:101A7800DF0EDC59D8A024D0DAC0BDF0DBC0BEF040
:101A8800DCC0BFF0DDC0C0F00D0E05D0D890C0336B
:101A9800BF33BE33BD33E82EF9D7BDC09AF0BEC000
:101AA8009BF0BFC09CF0C0C09DF07D0E9E6F000EE5
:101AB8009F6F000EA06F000EA16F1BEC57F01DD09A
:101AC800DAC09AF0DBC09BF0DCC09CF0DDC09DF072
:101AD8007D0E00019E6F000E9F6F000EA06F000E1E
:101AE800A16F1BEC57F00D0E06D00001D8909D3366
:101AF8009C339B339A33E82EF8D79AC0C9F09BC021
:101B0800CAF09CC0CBF09DC0CCF0C9C0BDF0CAC023
:101B1800BEF0CBC0BFF0CCC0C0F00001BD1FBE1FDF
:101B2800BF1FC01FBD2B000EBE23BF23C023020151
:101B3800CC510001BD25D26F0201CD510001BE215B
:101B4800D36F0201CE510001BF21D46F0201CF51E2
:101B58000001C021D56F000E0001E26F0F0EE26593
:101B680001D0D4D0E2510E0D040EF326000EF4225B
:101B7800000EF324D96E040EF420DA6EDE04D8A425
:101B8800C3D0E2510E0D080EF326000EF422000E0B
:101B9800F324D96E040EF420DA6EDE50DE10DE1067
:101BA800DE10D8B4B1D0E2510201DE19D8B46DD03C
:101BB8000001E2510E0D080EF326000EF422000E6D
:101BC800F324D96E040EF420DA6EDE50D25DDE50B6
:101BD800D359DE50D459DE50D559D8B046D0E25149
:101BE8000E0D080EF326000EF422000EF324D96E13
:101BF800040EF420DA6EDECFBDF0DECFBEF0DECF0D
:101C0800BFF0DECFC0F0D2C0C1F0D3C0C2F0D4C0A4
:101C1800C3F0D5C0C4F0C11FC21FC31FC41FC12B4E
:101C2800000EC223C323C423BD51C125C56FBE51B5
:101C3800C221C66FBF51C321C76FC051C421C86F2D
:101C4800E2510E0D080EF326000EF422000EF324C6
:101C5800D96E040EF420DA6EC5C0DEFFC6C0DEFF02
:101C6800C7C0DEFFC8C0DEFF10D0E2510E0D080E5F
:101C7800F326000EF422000EF324D96E040EF4208D
:101C8800DA6EDE6ADE6ADE6ADD6A0001E2510E0D96
:101C9800080EF326000EF422000EF324D96E040E6B
:101CA800F420DA6EDE50DE5DDE50DF59DE50E0599A
:101CB800DE50E159D8A028D0E2510E0D080EF326C7
:101CC800000EF422000EF324D96E040EF420DA6E0E
:101CD800DE50DE10DE10DE10D8B416D0E2510E0D44
:101CE800080EF326000EF422000EF324D96E040E1B
:101CF800F420DA6EDECFDEF0DECFDFF0DECFE0F00C
:101D0800DECFE1F0010ED16FE22B28D7D105D8A4A0
:101D180067D0DEC0CCF2DFC0CDF2E0C0CEF2E1C0C9
:101D2800CFF2E15107E1DE29FF0EDF590F0EE0592E
:101D3800D8A01CD0DEC060F0DFC061F0E0C062F067
:101D4800E1C063F07D0E646F000E656F000E666F74
:101D5800000E676FAEEC50F00C0ED89000016037A3
:101D6800613762376337E82EF8D722D0DEC0BDF07E
:101D7800DFC0BEF0E0C0BFF0E1C0C0F00C0ED890EC
:101D8800BD37BE37BF37C037E82EF9D7BDC060F0C2
:101D9800BEC061F0BFC062F0C0C063F07D0E646F6A
:101DA800000E656F000E666F000E676FAEEC50F0A8
:101DB80060C0CDF061C0CEF062C0CFF063C0D0F09B
:101DC800CDC06DF0CEC06EF0CFC06FF0D0C070F057
:101DD8000201ED51D5EC5AF00201ED515AEC4DF0EB
:101DE800020E02011619D8A412000651F00B0809B8
:101DF800066F70EC51F0120037EC63F00001BD6F14
:101E0800BDA914D0000E606F000E616F000E626FE6
:101E1800020E636F01D812000500FA6E01010C5121
:101E2800FD6E0D51FE6EFF6AFA50120001010C5151
:101E38000D11D8B41200000E0001606F000E616F22
:101E4800000E626F030E636F01D812000500FA6E70
:101E580001010C51FD6E0D51FE6EFF6AFA50120021
:101E680000C1AAF001C1ABF002C1ACF003C1ADF0F2
:101E78000001AD35AD33AC33AB33AA33000EAA2520
:101E8800C36F060EAB21C46FFF0EAC21C56FFF0EEA
:101E9800AD21C66F0B0EAA6F020EAB6FC3C0ACF0BC
:101EA800C4C0ADF0C5C0AEF0C6C0AFF0AB6701D0DE
:101EB80007D0AF35AF33AE33AD33AC33AB2FF6D736
:101EC800ACC09AF0ADC09BF0AEC09CF0AFC09DF026
:101ED800020E0001B06FC3C0B1F0C4C0B2F0C5C0FB
:101EE800B3F0C6C0B4F0B06701D007D0B435B4338E
:101EF800B333B233B133B02FF6D7B1C09EF0B2C00E
:101F08009FF0B3C0A0F0B4C0A1F01BEC57F00001E3
:101F1800AA6701D007D09D359D339C339B339A33F4
:101F2800AA2FF5D79AC0B7F09BC0B8F09CC0B9F0FB
:101F38009DC0BAF0B7C09AF0B8C09BF0B9C09CF089
:101F4800BAC09DF021EE7BF0DECF9EF0DDCF9FF092
:101F58000001000E9FBFFF0EA06FA16F1BEC57F092
:101F68009AC0BBF09BC0BCF09CC0BDF09DC0BEF049
:101F780021EE79F0DECF9AF0DDCF9BF00001000E64
:101F88009BBFFF0E9C6F9D6FC3C09EF0C4C09FF0A7
:101F9800C5C0A0F0C6C0A1F01BEC57F0D890000156
:101FA8009A35AA6F9B35AB6F9C35AC6F9D35AD6F7D
:101FB800BB51AA25BB6FBC51AB21BC6FBD51AC2135
:101FC800BD6FBE51AD21BE6F010177510001AA6FEF
:101FD800010178510001AB6FAC6BAD6BABC0ADF0DC
:101FE800AAC0ACF0AB6BAA6B020EAE6FBBC0AFF071
:101FF800BCC0B0F0BDC0B1F0BEC0B2F0AE6701D099
:1020080007D0B235B233B133B033AF33AE2FF6D7D2
:102018000001AA51AF25BB6FAB51B021BC6FAC51C9
:10202800B121BD6FAD51B221BE6F0D0EAA6F020E68
:10203800AB6FC3C0ACF0C4C0ADF0C5C0AEF0C6C095
:10204800AFF0AB6701D007D0AF35AF33AE33AD33A8
:10205800AC33AB2FF6D7ACC09AF0ADC09BF0AEC096
:102068009CF0AFC09DF0020E0001B06FC3C0B1F08C
:10207800C4C0B2F0C5C0B3F0C6C0B4F0B06701D0F8
:1020880007D0B435B433B333B233B133B02FF6D746
:10209800B1C09EF0B2C09FF0B3C0A0F0B4C0A1F030
:1020A8001BEC57F00001AA6701D007D09D359D337E
:1020B8009C339B339A33AA2FF5D79AC0B7F09BC0AD
:1020C800B8F09CC0B9F09DC0BAF0120E0001AA6F1A
:1020D800030EAB6F21EE75F0DECF9AF0DDCF9BF0EB
:1020E800000E9BBFFF0E9C6F9D6FB7C09EF0B8C0DF
:1020F8009FF0B9C0A0F0BAC0A1F01BEC57F09AC08D
:10210800ACF09BC0ADF09CC0AEF09DC0AFF000013C
:10211800AB6701D007D0AF35AF33AE33AD33AC3397
:10212800AB2FF5D721EE73F0DECF9AF0DDCF9BF021
:102138000001000E9BBFFF0E9C6F9D6FC3C09EF0F9
:10214800C4C09FF0C5C0A0F0C6C0A1F01BEC57F0FA
:1021580000019D359D339C339B339A339A51AC25AE
:10216800B06F9B51AD21B16F9C51AE21B26F9D51A3
:10217800AF21B36FAA6701D007D0B335B333B233F9
:10218800B133B033AA2FF6D7B0C0C3F0B1C0C4F092
:10219800B2C0C5F0B3C0C6F00F0E0001AA6F000EA2
:1021A800C3259A6F800EC4219B6F000EC5219C6FBA
:1021B800000EC6219D6F71C19EF072C19FF0A06B89
:1021C800A16B1BEC57F00001AA6701D007D09D3521
:1021D8009D339C339B339A33AA2FF5D79AC0C3F00B
:1021E8009BC0C4F09CC0C5F09DC0C6F00001C3519F
:1021F800C411C511C611D8A409D0000EA66F000ECF
:10220800A76F000EA86F000EA96F12000C0EAA6F20
:10221800BBC0ABF0BCC0ACF0BDC0ADF0BEC0AEF052
:10222800AA6701D007D0AE35AE33AD33AC33AB338C
:10223800AA2FF6D7020100510001AB25AF6F0201AA
:1022480001510001AC21B06F020102510001AD2122
:10225800B16F020103510001AE21B26FAF1FB01F71
:10226800B11FB21FAF2B000EB023B123B223000E53
:10227800AF259A6F000EB0219B6F100EB1219C6F95
:10228800000EB2219D6F350E9E6F0C0E9F6F000ED3
:10229800A06F000EA16F1BEC57F09AC0BFF09BC057
:1022A800C0F09CC0C1F09DC0C2F0800E0001C25DAC
:1022B800D8B01CD0D890BF35606FC035616FC135BC
:1022C800626FC235636FC3C064F0C4C065F0C5C037
:1022D80066F0C6C067F0AEEC50F060C0BFF061C0F9
:1022E800C0F062C0C1F063C0C2F01CD0BFC060F0D3
:1022F800C0C061F0C1C062F0C2C063F0C3C064F086
:10230800C4C065F0C5C066F0C6C067F0AEEC50F05A
:10231800D89000016035BF6F6135C06F6235C16FFD
:102328006335C26FBFC0AAF0C0C0ABF0C1C0ACF08B
:10233800C2C0ADF0040E06D00001D890AD33AC3366
:10234800AB33AA33E82EF8D7AAC09AF0ABC09BF0FB
:10235800ACC09CF0ADC09DF0BFC0AEF0C0C0AFF047
:10236800C1C0B0F0C2C0B1F0040E05D0D890B133EE
:10237800B033AF33AE33E82EF9D7AEC09EF0AFC05E
:102388009FF0B0C0A0F0B1C0A1F01BEC57F00E0E4A
:1023980006D00001D8909D339C339B339A33E82EA6
:1023A800F8D79AC0B7F09BC0B8F09CC0B9F09DC0F0
:1023B800BAF00C0EAA6F21EE81F0DECF9AF0DDCFD5
:1023C8009BF0000E9BBFFF0E9C6F9D6FB7C09EF0E9
:1023D800B8C09FF0B9C0A0F0BAC0A1F01BEC57F08C
:1023E8000001AA6701D007D09D359D339C339B33EC
:1023F8009A33AA2FF5D79AC0C3F09BC0C4F09CC0EB
:10240800C5F09DC0C6F00D0E0001AA6FBFC0ABF0AD
:10241800C0C0ACF0C1C0ADF0C2C0AEF0030E05D074
:10242800D890AE33AD33AC33AB33E82EF9D7ABC06D
:102438009AF0ACC09BF0ADC09CF0AEC09DF021EE10
:102448007FF0DECF9EF0DDCF9FF0000E9FBFFF0E26
:10245800A06FA16F1BEC57F00001AA6701D007D04D
:102468009D359D339C339B339A33AA2FF5D79AC059
:10247800BBF09BC0BCF09CC0BDF09DC0BEF0040E7C
:102488000001AA6F7DC1ABF07EC1ACF0000EACBFFD
:10249800FF0EAD6FAE6FC351AB25AF6FC451AC210A
:1024A800B06FC551AD21B16FC651AE21B26FBB51EE
:1024B800AF25B36FBC51B021B46FBD51B121B56F19
:1024C800BE51B221B66FAA6701D007D0B635B63370
:1024D800B533B433B333AA2FF6D70001BF51B325B0
:1024E800BF6FC051B421C06FC151B521C16FC25176
:1024F800B621C26FBFC0A6F0C0C0A7F0C1C0A8F087
:10250800C2C0A9F012004DC165F0000E0001666F4F
:10251800000EDCEC43F035C16DF036C16EF037C10A
:102528006FF038C170F0C1EC46F00101505149EC30
:1025380046F001014D05D8A4EDD143C162F0390E32
:10254800EBEC5FF057C1A8F0010E0001A8170101DC
:10255800D89056350001A96F01014F39F00B0001E1
:10256800A911A811626F1D0EEBEC5FF0A6C0A8F0D0
:10257800A7C0A9F0A9C0A8F00001A96B030EA8176D
:1025880051C1AAF0010EAA17D890AA37D890AA3735
:1025980001014E39F00B0001AA11A811626F1E0E3D
:1025A800EBEC5FF0010153515411D8B46FD053C113
:1025B800ACF054C1ADF00001AE6BAF6B4ED0ACC007
:1025C8009AF0ADC09BF0AEC09CF0AFC09DF07D0E00
:1025D80000019E6F000E9F6F000EA06F000EA16F8E
:1025E8001BEC57F027D0ACC09AF0ADC09BF0AEC042
:1025F8009CF0AFC09DF0FA0E00019E6F000E9F6F19
:10260800000EA06F000EA16F1BEC57F013D0ACC0EA
:102618009AF0ADC09BF0AEC09CF0AFC09DF0F40E38
:1026280000019E6F010E9F6F000EA06F000EA16F3C
:102638001BEC57F09AC0ACF09BC0ADF09CC0AEF05C
:102648009DC0AFF016D0000E0001AC6F000EAD6F4C
:10265800000EAE6F000EAF6F0CD001014F51070A8C
:10266800D8B4ADD70F0AD8B4BED7010AD8B4CFD7DB
:10267800EAD701014E290001A86F05D0D890AF33E1
:10268800AE33AD33AC33A82FF9D709D0000E000113
:10269800AC6F000EAD6F000EAE6F000EAF6FACC02A
:1026A80062F0240EEBEC5FF0A6C062F01F0EEBECBC
:1026B8005FF0260E92EC5EF00001B06F0C0E010187
:1026C8004E19D8A408D0070E4F19D8B40CD0080E4C
:1026D8004F19D8B408D00B0E4E19D8A407D0070E3E
:1026E8004F19D8A403D00001B08702D00001B097D9
:1026F800B085B0C062F0260EEBEC5FF0310E92ECC4
:102708005EF00001B06FF80EB017030EB013B0C042
:1027180062F0310EEBEC5FF00A0E0001626F370ECB
:10272800EBEC5FF0120E01016619D8A42FD0070E4A
:102738004F19D8B404D0080E4F19D8A417D0310EA9
:1027480092EC5EF00001B06FB09FB0C062F0310E45
:10275800EBEC5FF0400E0001626F2F0EEBEC5FF0C8
:10276800000E0001626F300EEBEC5FF0090E010104
:102778004F19D8A40BD0310E92EC5EF00001B06F67
:10278800B08FB0C062F0310EEBEC5FF0330E92EC1C
:102798005EF00001B06FB09DB08155C1A8F0010E88
:1027A800A817060EA96FD890A837A92FFCD7A8514B
:1027B800B013B0C062F0330EEBEC5FF055C1A8F077
:1027C800010E0001A817D890A837D890A835FF0A9D
:1027D8001D0BB06FB0C062F03B0EEBEC5FF0010177
:1027E80042510001626F200EEBEC5FF041C162F0D4
:1027F800210EEBEC5FF0000E0001626F0D0EEBECAA
:102808005FF0000E0001626F0E0EEBEC5FF0000E41
:102818000001626F0F0EEBEC5FF0120E01016619FA
:10282800D8A471D0090E4F19D8A420D0800E355DD8
:10283800130E3659610E3759330E3859D8A016D0B1
:102848003505F70E3659CB0E37593C0E3859D8B0E6
:102858000DD0020E0001626F360EEBEC5FF0640ED5
:102868000001626F3A0EEBEC5FF02CD0090E01010B
:102878004F19D8A421D0800E355D1A0E3659700E26
:102888003759180E3859D8A017D0410E355DDD0ECE
:1028980036594A0E37591F0E3859D8B00DD0020E86
:1028A8000001626F360EEBEC5FF07F0E0001626F85
:1028B8003A0EEBEC5FF006D0030E0001626F360EA5
:1028C800EBEC5FF0090E01014F19D8A410D05505A3
:1028D800D8A40DD0650E0001626F3A0EEBEC5FF0E4
:1028E800190E0001626F3B0EEBEC5FF00CD0650E29
:1028F8000001626F3A0EEBEC5FF01D0E0001626F93
:102908003B0EEBEC5FF0FF0E0001626F120EEBEC7A
:102918005FF0120039C16DF03AC16EF03BC16FF043
:102928003CC170F0B1EC53F03DC16DF03EC16EF0AA
:102938003FC16FF040C170F0E6EC53F00101425125
:102948000001626F250EEBEC5FF041C162F0260ECC
:10295800EBEC5FF00A0E92EC5EF00001B06F9F0E98
:10296800B01701016839E846E00B0001B013B0C0A8
:1029780062F00A0EEBEC5FF0C80E0001B06F0101C7
:102988005151D8B402D00001B089B0C062F0300E05
:10299800EBEC5FF0000E0001AB6F10D0AB51010DF6
:1029A800440EF324D96E010EF420DA6EDF50626F04
:1029B800AB51280FEBEC5FF00001AB2B01014C5140
:1029C8000001AB5DD8A0EAD701014C51D8B408D0BA
:1029D8004C0510090001626F270EEBEC5FF006D082
:1029E800000E0001626F270EEBEC5FF0FF0E000196
:1029F800626F3E0EEBEC5FF0FF0E0001626F3F0E60
:102A0800EBEC5FF012000001896F000189AF1ED165
:102A1800896D8951800A120FD8A0A0D0000E716F5D
:102A2800030E706F000E696F0A0E686F000E636FF9
:102A3800640E626F8951606F616B60BF610762EC01
:102A480052F060C066F061C067F028EC50F0090EE3
:102A5800000166256E6F000E67216F6F7EEC5EF0D9
:102A68008E0E00016E25F66EFE0E6F21F76EF86A67
:102A7800000EF8220900F5CF77F00900F5CF78F0BD
:102A88000A00F5CF79F0000E696F640E686F8951FE
:102A9800666F676B66BF670728EC50F0120E00017F
:102AA80066256E6F000E67216F6F000E716F030E43
:102AB800706F7EEC5EF08E0E00016E25F66EFE0ED7
:102AC8006F21F76EF86A000EF8220900F5CF74F04E
:102AD8000900F5CF75F00A00F5CF76F054EC45F013
:102AE80074C086F075C087F076C088F086C074F030
:102AF80087C075F088C076F0000E0001716F030E74
:102B0800706F000E636F0A0E626F8951606F616BA0
:102B180060BF610762EC52F060C06EF061C06FF098
:102B28007EEC5EF08E0E00016E25F66EFE0E6F21B5
:102B3800F76EF86A000EF8220900F5CF77F0090061
:102B4800F5CF78F00A00F5CF79F054EC45F074C071
:102B580083F075C084F076C085F0120000018951B9
:102B6800800A750FD8A05CD0000E696F0A0E686FD6
:102B78008951666F676B66BF670728EC50F0090ECE
:102B8800000166256E6F000E67216F6F000E716F72
:102B9800030E706F7EEC5EF08E0E00016E25F66EF1
:102BA800FE0E6F21F76EF86A000EF8220900F5CFC5
:102BB80074F00900F5CF75F00A00F5CF76F0000E35
:102BC800716F030E706F000E636F0A0E626F89518A
:102BD800606F616B60BF610762EC52F060C06EF0BD
:102BE80061C06FF07EEC5EF08E0E00016E25F66E11
:102BF800FE0E6F21F76EF86A000EF8220900F5CF75
:102C080077F00900F5CF78F00A00F5CF79F054ECA9
:102C180045F074C083F075C084F076C085F012006A
:102C280000018951030D8E0EF324F66EFE0EF4207A
:102C3800F76EF86A000EF8220900F5CF83F0090054
:102C4800F5CF84F00A00F5CF85F012008951800A8B
:102C5800120FD8A0A0D0000E716F030E706F000E77
:102C6800696F0A0E686F000E636F640E626F895198
:102C7800606F616B60BF610762EC52F060C066F024
:102C880061C067F028EC50F0090E000166256E6FF0
:102C9800000E67216F6F7EEC5EF0670E00016E25F7
:102CA800F66EFE0E6F21F76EF86A000EF822090024
:102CB800F5CF77F00900F5CF78F00A00F5CF79F075
:102CC800000E696F640E686F8951666F676B66BF27
:102CD800670728EC50F0120E000166256E6F000E93
:102CE80067216F6F000E716F030E706F7EEC5EF0E0
:102CF800670E00016E25F66EFE0E6F21F76EF86AFC
:102D0800000EF8220900F5CF74F00900F5CF75F030
:102D18000A00F5CF76F054EC45F074C086F075C023
:102D280087F076C088F086C074F087C075F088C0D8
:102D380076F0000E0001716F030E706F000E636F66
:102D48000A0E626F8951606F616B60BF610762EC48
:102D580052F060C06EF061C06FF07EEC5EF0670EFE
:102D680000016E25F66EFE0E6F21F76EF86A000EF2
:102D7800F8220900F5CF77F00900F5CF78F00A00BE
:102D8800F5CF79F054EC45F074C083F075C084F049
:102D980076C085F0120000018951800A750FD8A00D
:102DA8005CD0000E696F0A0E686F8951666F676B99
:102DB80066BF670728EC50F0090E000166256E6FA4
:102DC800000E67216F6F000E716F030E706F7EEC3F
:102DD8005EF0670E00016E25F66EFE0E6F21F76E2F
:102DE800F86A000EF8220900F5CF74F00900F5CF53
:102DF80075F00A00F5CF76F0000E716F030E706F54
:102E0800000E636F0A0E626F8951606F616B60BF5D
:102E1800610762EC52F060C06EF061C06FF07EEC4A
:102E28005EF0670E00016E25F66EFE0E6F21F76EDE
:102E3800F86A000EF8220900F5CF77F00900F5CFFF
:102E480078F00A00F5CF79F054EC45F074C083F0BF
:102E580075C084F076C085F0120000018951030D19
:102E6800670EF324F66EFE0EF420F76EF86A000E75
:102E7800F8220900F5CF83F00900F5CF84F00A00A5
:102E8800F5CF85F01200000E00016D6F62C0D9FF0A
:102E980063C0DAFFDF506E6F000E6D6F18D2645199
:102EA800D8B4F6D16D51020DAC0EF324D96E020ED2
:102EB800F420DA6EDE28D8B4EBD162C0D9FF63C043
:102EC800DAFFDF50656F666B651F661F654B662B03
:102ED800FE0E676FFF0E686F6D51020DAC0EF32486
:102EE800D96E020EF420DA6EDF50696F6A6B675193
:102EF800692768516A23F50E6925F66EFE0E6A2168
:102F0800F76EF86A000EF8220800F5506EC06BF0F4
:102F18006C6B6B27000E6C2365516B2766516C2315
:102F28006CBFB6D16C5105E1100E6B5DD8B0D5D130
:102F3800AFD1D3D16E51010DF3506025D96EF45045
:102F48006121DA6E030EDF6E6E2B6E51010DF350A8
:102F58006025D96EF4506121DA6E000EDF6E6D5176
:102F6800020D040E656F020E666FA80E6527000E2F
:102F78006623F3506527F4506623010E6525D96E44
:102F8800000E6621DA6E0201DFA00BD000016E513F
:102F9800010DF3506025D96EF4506121DA6E000EF0
:102FA800DB8000016D51020D040E656F020E666F25
:102FB800A80E6527000E6623F3506527F450662394
:102FC800010E6525D96E000E6621DA6E0201DFA2B8
:102FD8000BD000016E51010DF3506025D96EF450ED
:102FE8006121DA6E000EDB8200016D51020D040EC4
:102FF800656F020E666FA80E6527000E6623F350F4
:103008006527F4506623010E6525D96E000E6621EA
:10301800DA6E0201DFA489D000016E51010DF35070
:103028006025D96EF4506121DA6E000EDB847DD004
:103038006E51010DF3506025D96EF4506121DA6E9E
:10304800050EDF6E6E2B6E51010DF3506025D96EA3
:10305800F4506121DA6E000EDF6E6D51020D040E20
:10306800656F020E666FA80E6527000E6623F35083
:103078006527F4506623010E6525D96E000E66217A
:10308800DA6E0201DFA60BD000016E51010DF3507C
:103098006025D96EF4506121DA6E000EDB800001E4
:1030A8006D51020D040E656F020E666FA80E65273E
:1030B800000E6623F3506527F4506623010E65253C
:1030C800D96E000E6621DA6E0201DFA80BD000016E
:1030D8006E51010DF3506025D96EF4506121DA6EFE
:1030E800000EDB8200016D51020D040E656F020EA9
:1030F800666FA80E6527000E6623F3506527F45007
:103108006623010E6525D96E000E6621DA6E02016E
:10311800DFAA0BD000016E51010DF3506025D96E66
:10312800F4506121DA6E000EDB8400013CD06E5150
:10313800010DF3506025D96EF4506121DA6E060E48
:10314800DF6E6E2B6E51010DF3506025D96EF45071
:103158006121DA6EE4C2DFFF6E2B34EC63F0800A83
:10316800A00FD8A006D034EC63F0800A600FD8A076
:103178000CD000016E51010DF3506025D96EF4504A
:103188006121DA6E200EDF6E0ED000016E51010D46
:10319800F3506025D96EF4506121DA6E34EC63F097
:1031A8003F0BDF6EC2D76E2B91D06E51010DF350DD
:1031B8006025D96EF4506121DA6E070EDF6E6E2B32
:1031C8006E51010DF3506025D96EF4506121DA6E0D
:1031D800000EDF6E6D51020D040E656F020E666FF4
:1031E800A80E6527000E6623F3506527F450662362
:1031F800010E6525D96E000E6621DA6E0201DFAE7A
:103208000BD000016E51010DF3506025D96EF450BA
:103218006121DA6E000EDB8000016D51020D040E93
:10322800656F020E666FA80E6527000E6623F350C1
:103238006527F4506623010E6525D96E000E6621B8
:10324800DA6E0201DFAC71D700016E51010DF35047
:103258006025D96EF4506121DA6E000EDB8265D7E5
:103268000201E169000EE26F00016D51020DAC0E22
:10327800F324D96E020EF420DA6E6E51010DF3506C
:103288006025E96EF4506121EA6EDFCFEFFF8BD73E
:103298006D51020DAC0EF324D96E020EF420DA6ED5
:1032A800DF50020AD8B4DCD7010AD8B443D6070ADB
:1032B800D8B4DBD7010AD8B4BBD6030AD8B437D7F9
:1032C800010AD8B472D70F0AD8B4CFD76D2B020130
:1032D800AB5100016D5DD8A0E2D562C0D9FF63C0D3
:1032E800DAFF6EC0DFFF1200000E010100250001A9
:1032F800D76FD40E010101210001D86FFE0E010124
:1033080002210001D96FFF0E010103210001DA6FCC
:103318000B0EAA6F0101865100019A6F9B6B9C6B83
:103328009D6BD7C09EF0D8C09FF0D9C0A0F0DAC07E
:10333800A1F01BEC57F00001AA6701D007D09D351A
:103348009D339C339B339A33AA2FF5D7000E000187
:103358009A25D36F800E9B21D46F000E9C21D56FC8
:10336800000E9D21D66F0A0EAA6F01018B51000134
:103378009A6F000E9ABFFF0E9B6F9C6F9D6FD7C010
:103388009EF0D8C09FF0D9C0A0F0DAC0A1F01BEC25
:1033980057F00001AA6701D007D09D359D339C33B3
:1033A8009B339A33AA2FF5D79AC0C3F09BC0C4F0B9
:1033B8009CC0C5F09DC0C6F00A0E0001AA6FD3C01C
:1033C8009AF0D4C09BF0D5C09CF0D6C09DF0C3C085
:1033D8009EF0C4C09FF0C5C0A0F0C6C0A1F01BEC11
:1033E80057F00001AA6701D007D09D359D339C3363
:1033F8009B339A33AA2FF5D7000E00019A25C76F81
:10340800000E9B21C86F200E9C21C96F000E9D21C4
:10341800CA6F0F0EAA6F21EE89F0DECF9AF0DDCFCA
:103428009BF0000E9BBFFF0E9C6F9D6FD7C09EF058
:10343800D8C09FF0D9C0A0F0DAC0A1F01BEC57F0BB
:1034480000019A1F9B1F9C1F9D1F9A2B000E9B23F8
:103458009C239D23010187510001AB6F0101885115
:103468000001AC6FAD6BAE6B140ED890AB37AC37B8
:10347800AD37AE37E82EF9D7AB1FAC1FAD1FAE1F67
:10348800AB2B000EAC23AD23AE2304C1AFF005C1B6
:10349800B0F006C1B1F007C1B2F00E0ED890AF3748
:1034A800B037B137B237E82EF9D7AB51AF25B36F84
:1034B800AC51B021B46FAD51B121B56FAE51B2214D
:1034C800B66F9A51B325B76F9B51B421B86F9C5111
:1034D800B521B96F9D51B621BA6F000EB725BB6FE4
:1034E800400EB821BC6F000EB921BD6F000EBA2185
:1034F800BE6FAA6701D007D0BE35BE33BD33BC331B
:10350800BB33AA2FF6D7BBC0CBF0BCC0CCF0BDC034
:10351800CDF0BEC0CEF00E0E0001AA6FC7C09AF063
:10352800C8C09BF0C9C09CF0CAC09DF021EE84F0D1
:10353800DECF9EF0DDCF9FF0000E9FBFFF0EA06F85
:10354800A16F1BEC57F0000E00019A25AB6F200EFF
:103558009B21AC6F000E9C21AD6F000E9D21AE6FBC
:10356800AA6701D007D0AE35AE33AD33AC33AB3339
:10357800AA2FF6D7ABC0CFF0ACC0D0F0ADC0D1F019
:10358800AEC0D2F0CBC09AF0CCC09BF0CDC09CF0BE
:10359800CEC09DF0CFC09EF0D0C09FF0D1C0A0F0AB
:1035A800D2C0A1F01BEC57F09AC0D7F09BC0D8F05E
:1035B8009CC0D9F09DC0DAF0070E0001AA6F0F0E6B
:1035C800AB6FD7C0ACF0D8C0ADF0D9C0AEF0DAC0A0
:1035D800AFF0AB6701D007D0AF35AF33AE33AD3303
:1035E800AC33AB2FF6D7ACC09AF0ADC09BF0AEC0F1
:1035F8009CF0AFC09DF00F0E0001B06FD7C0B1F0C6
:10360800D8C0B2F0D9C0B3F0DAC0B4F0B06701D016
:1036180007D0B435B433B333B233B133B02FF6D7A0
:10362800B1C09EF0B2C09FF0B3C0A0F0B4C0A1F08A
:103638001BEC57F00001AA6701D007D09D359D33D8
:103648009C339B339A33AA2FF5D79AC0D3F09BC0EB
:10365800D4F09CC0D5F09DC0D6F0040E0001AA6F2E
:10366800D3C09AF0D4C09BF0D5C09CF0D6C09DF0D2
:103678000101835100019E6F9F6BA06BA16B1BEC36
:1036880057F00001AA6701D007D09D359D339C33C0
:103698009B339A33AA2FF5D700019A1F9B1F9C1FB3
:1036A8009D1F9A2B000E9B239C239D23D7519A255F
:1036B800D76FD8519B21D86FD9519C21D96FDA5136
:1036C8009D21DA6FDAAF08D0000ED76F000ED86FE1
:1036D800000ED96F000EDA6FDABF11D0D705000ED1
:1036E800D859000ED959190EDA59D8A008D0000EA9
:1036F800D76F000ED86F000ED96F190EDA6F0C0E47
:10370800AA6FD7C0ABF0D8C0ACF0D9C0ADF0DAC062
:10371800AEF0AA6701D007D0AE35AE33AD33AC33C7
:10372800AB33AA2FF6D7ABC0BFF0ACC0C0F0ADC06A
:10373800C1F0AEC0C2F0BFC0A6F0C0C0A7F0C1C003
:10374800A8F0C2C0A9F012000001CE6F100E00014F
:10375800D26F000ED16FCF0E606F000E616F000E3A
:10376800636F000E626F000E656F010E646F1FECD1
:103778005DF0200E0001606F050E616F000E636F33
:10378800000E626F010E656F0F0E646F1FEC5DF027
:10379800C80E0001606F030E616F000E636F000EAC
:1037A800626F000E656F100E646F1FEC5DF0000114
:1037B800CE05D8A407D0CF511F0B8009CF6F0201C7
:1037C800048105D00001CF511F0B4009CF6FFC0EBB
:1037D8000001CF17CF95CF97CF99D251010D200E69
:1037E800F324D96E050EF420DA6ECFC0DFFFD22B9A
:1037F800D251010D200EF324606F050EF420616F85
:10380800220E626F020E636F000E656F040E646F06
:10381800A9EC55F00001D251040FD26F000ED06F01
:10382800020106AD47D00001D08F0201E351EF5DE0
:10383800D8B03FD00001D08D02010489D44BD52BDC
:10384800A6510001CC6FCD6B0201D4510001CC19F7
:103858000CE10201D5510001CD19D8A406D0000E03
:103868000201F26F23D0020124D00201A651000107
:10387800CC6FCD6B0201D4510001CC5D0201D55152
:103888000001CD59D8B013D00201F22BF251A75D37
:10389800D8B010D0000EF26F92EC48F00009D8A40E
:1038A80009D0000E0201D56F000ED46F0001D09D23
:1038B800DAD70499020104A304D00001D08B0201D5
:1038C80004930001D0990201AB51D8B405D000018E
:1038D800CA51CB11D8A406D00001D091D093D0956D
:1038E800D09709D045EC4AF00001CC6FD051CC19E3
:1038F800F00BCC19D06FD251010D200EF324D96EE4
:10390800050EF420DA6ED0C0DFFFD22BD251010DA4
:10391800200EF324606F050EF420616F0A0E626FAB
:10392800020E636F000E656F020E646FA9EC55F00E
:103938000001D251020FD26F0201AB51D8B411D09D
:103948000001CA51CB11D8B40CD0200E606F050EFF
:10395800616FD20E626F000E636F010E646F47ECE9
:1039680017F00001D251010D200EF324D96E050E77
:10397800F420DA6EC7C0DFFFD22BCA51CB11D8B4FE
:1039880035D0D251010D200EF324606F050EF420BE
:10399800616FC8C062F0C9C063F0CAC064F0CBC030
:1039A80065F0A9EC55F0C8C091F0C9C092F0CAC042
:1039B80093F0000E0001946F0AC295F00BC296F0C6
:1039C8000CC297F00DC298F0360E996F020E9A6FDE
:1039D800D2C09BF0200E9C6F050E9D6F000E9E6F4F
:1039E8003EEC37F00001D251CA2533D00201AB5169
:1039F800D8B430D02F0E0001606F060E616FD10E63
:103A0800626F000E636F000E646F47EC17F02F0EA5
:103A18000001916F060E926FD1C093F0000E946F63
:103A28000AC295F00BC296F00CC297F00DC298F03E
:103A3800260E996F020E9A6FD2C09BF0200E9C6FD3
:103A4800050E9D6F000E9E6F3EEC37F00001D251BF
:103A5800D125D26F0AC26BF00BC26CF00CC26DF0AC
:103A68000DC26EF00001D251F00F6F6F490E706FEA
:103A7800000E716F000ECFEC45F0200E0001606F54
:103A8800050E616FC80E626F030E636F000E656FDF
:103A9800100E646FA9EC55F0260E0001B96F020EE6
:103AA800BA6FC80EBB6F030EBC6F200EBD6F050E3C
:103AB800BE6FD2C0BFF080EC1DF00001D251010DE5
:103AC800200EF324606F050EF420616FC80E626F3C
:103AD800030E636F000E656F040E646FA9EC55F05A
:103AE8000001D251040FD26FF00ED2250201D86F17
:103AF800D96BFF0ED9231200000E0101EF6F000EE3
:103B0800F16F000EF06F000EEE6F000EEC6F000EFE
:103B1800ED6FB9C091F0BAC092F09C0E0001936F9E
:103B2800010E946F8C0E956F010E966FECEC3CF0C5
:103B38000001BF51C06FC16B0F0EC027000EC1231B
:103B4800040EC26FC135C133C033C22FFBD7C05179
:103B58000101EF6FEF51D8A404D0010EEF6F000EF2
:103B68000BD0BFC0C0F00F0E0001C017D8A402D000
:103B7800010E01D0000E0101EE6FEE05D8A448D069
:103B8800000EF06FEF39F00BF00FF16F24D0010148
:103B9800F051010DAC0EF324D96E010EF420DA6E4B
:103BA800F051010D9C0EF324E96E010EF420EA6E2B
:103BB800EF500001C06F0101F151010DF3500001F8
:103BC800BD25E96EF450BE21EA6EEF50C019DF6ED4
:103BD8000101F02BF12BEF510001C06FC16BC03B0D
:103BE800C13BF00EC117C0510F0BC113F00EC01727
:103BF8000101F1510001C26FC36BC051C25DC351D5
:103C0800800AC46FC151800AC459D8B07FD0BFD7C9
:103C18000001BF510F0BC06FC16BC01FC11FC04B4C
:103C2800C12BBF51C26FC36BC051C227C151C3233F
:103C3800C251BD250101EC6F0001C351BE21010134
:103C4800ED6F000EF16F0F0EF16501D036D0000157
:103C5800BF510F0B0101F16113D0F151010DF35068
:103C6800EC25D96EF450ED21DA6EF151010DBC0E40
:103C7800F324E96E010EF420EA6EDFCFEFFF1BD0CC
:103C88000001BF510F0B0101F119D8A40AD0F1515D
:103C9800010DBC0EF324D96E010EF420DA6E800EED
:103CA80009D0F151010DBC0EF324D96E010EF42098
:103CB800DA6E000EDF6EF12BC6D7000EF16F0F0E15
:103CC800F16501D023D0F151010DAC0EF324D96E6A
:103CD800010EF420DA6EF151010D8C0EF324E96E19
:103CE800010EF420EA6EEF500001C06F0101F1519E
:103CF800010DBC0EF324E96E010EF420EA6EEF50BC
:103D08000001C019DF6E0101F12BD9D7DC0E0001CB
:103D1800606F010E616F000E636F000E626F000E20
:103D2800656F100E646F1FEC5DF0000E0101F16FFE
:103D380056D0000E0101F06F0F0EF06501D033D0A0
:103D4800F051010DCC0EF324D96E010EF420DA6E79
:103D5800F1510001C06FC16BC03BC13BF00EC117F0
:103D6800C0510F0BC113F00EC0170101F051000133
:103D7800C027000EC123C051BD25E96EC151BE2127
:103D8800EA6EEF50C26F0101F051010DDC0EF32411
:103D9800E96E010EF420EA6EEF500001C219DF6EE1
:103DA8000101F02BC9D7DC0E0001606F010E616FB5
:103DB800CC0E626F010E636F000E656F100E646F9C
:103DC800A9EC55F0DC0E00017D6F010E7E6FB9C0C5
:103DD8007FF0BAC080F0F6EC5BF00101F12BFF0E2A
:103DE8000001C06FFF0EC16F0101EF510001C26FEA
:103DF800C36BC051C227C151C3230101F151000156
:103E0800C46FC56BC251C45DC551800AC66FC3512A
:103E1800800AC659D8A08DD7000E0101F16F0F0E88
:103E2800F16501D023D0F151010DCC0EF324D96EE8
:103E3800010EF420DA6EF151010DAC0EF324E96E97
:103E4800010EF420EA6EEF500001C06F0101F1513C
:103E5800010DDC0EF324E96E010EF420EA6EEF503A
:103E68000001C019DF6E0101F12BD9D7CC0E00017A
:103E78007D6F010E7E6FB9C07FF0BAC080F0F6EC9E
:103E88005BF0BBC060F0BCC061F0CC0E0001626F9B
:103E9800010E636F000E656F100E646FA9EC55F08C
:103EA80012000001C669C769C869C969020107B17A
:103EB80090D106510F0B030AD8A411D01651D8A4DB
:103EC80005D00651F00B0409066F1200020E1619F0
:103ED800D8A41200000EE66E70EC49F0120004A59A
:103EE80003D0D7EC5CF0120006A9120004A158D048
:103EF800DD51DB5DD8A038D00651F00B0609066FFE
:103F0800A4510001C26F0201A5510001C36FC46B27
:103F1800C56B0C0ED890C237C337C437C537E82EE7
:103F2800F9D7C2C060F0C3C061F0C4C062F0C5C0B8
:103F380063F07D0E646F000E656F000E666F000EF5
:103F4800676FAEEC50F060C06DF061C06EF062C09B
:103F58006FF063C070F00201EC51D5EC5AF0020129
:103F6800EC515AEC4DF01200DCEC61F001010C51FF
:103F78000D11D8B41200000E0001606F000E616FC1
:103F8800000E626F000E636F01D812000500FA6E12
:103F980001010C51FD6E0D51FE6EFF6AFA501200C0
:103FA8000201DC51DA5DD8A0F8D00651F00B060901
:103FB800066F010E7BEC53F00009D8A431D0300E07
:103FC8000001B16F050EB26FD8C2B3F0E2EC2DF06C
:103FD8000001B151B211D8A407D00201DC2B06515F
:103FE800F00B0109066F120091EC61F001010C5110
:103FF8000D11D8B41200000E0001606F000E616F41
:10400800000E626F000E636F01D812000500FA6E91
:1040180001010C51FD6E0D51FE6EFF6AFA5012003F
:10402800000E0001CA6F7CD00001CA510E0D040EAB
:10403800F326000EF422000EF324D96E040EF420A9
:10404800DA6EDE04D8A46AD0CA510E0D080EF32623
:10405800000EF422000EF324D96E040EF420DA6E5A
:10406800DE50DE10DE10DE10D8B458D0CA510E0D66
:10407800080EF326000EF422000EF324D96E040E67
:10408800F420DA6EDE50C65DDE50C759DE50C859DE
:10409800DE50C959D8A042D0CA510E0D050EF326DC
:1040A800000EF422000EF324D96E040EF420DA6E0A
:1040B8000401DF500F0B0001C26FC2510201E35D22
:1040C800D8A02CD00001CA510E0D050EF326000E03
:1040D800F422000EF324D96E040EF420DA6E0401E3
:1040E800DF380F0B0001C26F0201E3510001C25D0E
:1040F800D8A014D0CA510E0D080EF326000EF422D3
:10410800000EF324D96E040EF420DA6EDECFC6F06A
:10411800DECFC7F0DECFC8F0DECFC9F00001CA2B72
:10412800CA510201F15DD8B07FD7C6C0C2F0C7C07E
:10413800C3F0C8C0C4F0C9C0C5F00C0ED8900001C7
:10414800C237C337C437C537E82EF8D7000EC225A3
:10415800606F200EC321616F030EC421626F000ED1
:10416800C521636F7D0E646F000E656F000E666F6C
:10417800000E676FAEEC50F060C06DF061C06EF07D
:1041880062C06FF063C070F00201EE51D5EC5AF0D6
:104198000201EE515AEC4DF0120091EC61F0010170
:1041A8000C510D11D8B41200000E0001606F000E02
:1041B800616F000E626F010E636F01D81200050077
:1041C800FA6E01010C51FD6E0D51FE6EFF6AFA5038
:1041D800120001010C510D11D8B41200000E00019B
:1041E800606F000E616F000E626F020E636F01D880
:1041F80012000500FA6E01010C51FD6E0D51FE6EA4
:10420800FF6AFA50120037EC5DF0F28EF28CF30E72
:1042180001018F6FFF0E906F96EC06F05BEC60F07B
:10422800000E11EC5CF060C068F061C069F0CDEC84
:104238005EF068C074F069C075F06AC076F0170E59
:104248000001776F510E786F400E796F54EC45F08E
:1042580074C01DF175C01EF176C01FF16D0E01010D
:104268008F6FFF0E906FB8EC61F08CC191F18DC12A
:1042780092F18EC193F1C1EC61F08CC194F18DC1C2
:1042880095F18EC196F1CAEC61F08CC197F18DC1A0
:1042980098F18EC199F11DC19AF11EC19BF11FC100
:1042A8009CF196EC06F0E60E01018F6FFF0E906F01
:1042B80096EC06F0E20E0001B26FC60EB36FE00E88
:1042C800B46FC60EB56F48EC55F001012B51D8A458
:1042D80020D0E00E00016B6F030E6C6FAAEC5DF04E
:1042E800E80E00016B6F030E6C6F65EC5DF0F00E6D
:1042F80000016B6F040E6C6F93EC5DF0000EB6EC72
:104308004CF0CB0E01018F6FFF0E906F96EC06F00C
:1043180022D0100E00016B6F050E6C6F4EEC5DF035
:10432800000E00016B6F050E6C6F7CEC5DF0F9C23E
:1043380060F0FAC261F0FBC262F0FCC263F00EECFE
:1043480061F0010EB6EC4CF0D90E01018F6FFF0E33
:10435800906F96EC06F09BEC5BF083EC62F0000942
:10436800D8B43BD001012A2B000E11EC5CF060C0E0
:1043780068F061C069F0CDEC5EF068C074F069C0A7
:1043880075F06AC076F0170E0001776F510E786FDE
:10439800400E796F54EC45F074C01DF175C01EF1E4
:1043A80076C01FF15BEC60F0B8EC61F08CC11AF1DB
:1043B8008DC11BF18EC11CF1C1EC61F08CC117F1EC
:1043C8008DC118F18EC119F1CAEC61F08CC114F1DC
:1043D8008DC115F18EC116F17E92140E01012A19B4
:1043E800D8A4B9D7000E0001776FC80E786F420EB7
:1043F800796F1AC174F01BC175F01CC176F054ECCA
:1044080045F074C083F075C084F076C085F0D8ECB0
:1044180044F0000184C083F0846B83510301D86F9A
:10442800000E0001776FC80E786F420E796F1AC1BF
:1044380074F01BC175F01CC176F054EC45F074C0E3
:1044480083F075C084F076C085F0D8EC44F00001A4
:1044580083510301D96F17C183F018C184F019C1C2
:1044680085F0D8EC44F0000184C083F0846B83515C
:104478000301DA6F17C183F018C184F019C185F000
:10448800D8EC44F0000183510301DB6F000E0001FA
:10449800776FC80E786F420E796F14C174F015C12A
:1044A80075F016C176F054EC45F074C083F075C011
:1044B80084F076C085F0D8EC44F0000184C083F025
:1044C800846B83510301DC6F000E0001776FC80E07
:1044D800786F420E796F14C174F015C175F016C16A
:1044E80076F054EC45F074C083F075C084F076C063
:1044F80085F0D8EC44F0000183510301DD6F1DC144
:1045080083F01EC184F01FC185F0D8EC44F000018F
:1045180084C083F0846B83510301DE6F1DC183F077
:104528001EC184F01FC185F0D8EC44F0000183510E
:104538000301DF6F020E0001D36FD80ED46F030E94
:10454800D56F080ED66F000EDCEC49F0000E0101A5
:104558002A6F01D70A0E0101336F010E466E000E55
:1045680000017C6F0F0E7C6501D016D07C51010DC7
:10457800F3506825D96EF4506921DA6EDF506A6FFE
:104588007C51010DF3506625D96EF4506721DA6E1F
:104598006A51DF1A7C2BE6D7000E00017C6F0F0EE4
:1045A8007C6501D022D07C51010DF3506625D96E6F
:1045B800F4506721DA6EDF506A6F6A51010D3F0EC1
:1045C800F324F66EFD0EF420F76EF86A000EF8225A
:1045D8007C51010DF3506625D96EF4506721DA6ECF
:1045E8000800F5CFDFFF7C2BDAD766C060F067C024
:1045F80061F0E4EC3AF001013305D8B427D1000E9C
:1046080000017C6F0F0E7C6501D020D17C516A6F50
:104618006B6B010E6A27000E6B236A516625D96EF3
:104628006B516721DA6EDF506C6F7C516625D96E4D
:10463800000E6721DA6EDF506C197A6F7C516A6F51
:104648006B6B030E6A27000E6B236A516625D96EC1
:104658006B516721DA6EDF506C6F7C516D6F6E6B3A
:10466800020E6D27000E6E236D516625D96E6E51B0
:104678006721DA6EDF506C197B6F7A517B19786F7E
:104688007C516A6F6B6B010E6A27000E6B236A51AF
:104698006625D96E6B516721DA6EDF506C6F7C51DD
:1046A8006D6F6E6B020E6D27000E6E236D516625C1
:1046B800D96E6E516721DA6EDF506C19796F7F0EF3
:1046C8007A650CD01B0E7AC06AF06B6BD8906A378B
:1046D8006B376A19726F6B51736F05D0D8907A3542
:1046E800726F736B733772C07AF07F0E79650CD076
:1046F8001B0E79C06AF06B6BD8906A376B376A19F2
:10470800746F6B51756F05D0D8907935746F756B70
:10471800753774C079F07F0E7B650CD01B0E7BC09B
:104728006AF06B6BD8906A376B376A19766F6B5182
:10473800776F05D0D8907B35766F776B773776C0F3
:104748007BF07C516625D96E000E6721DA6E7C51AC
:104758006625E96E000E6721EA6EEF5078197A191E
:10476800DF6E7C516A6F6B6B010E6A27000E6B233C
:104778006A516625D96E6B516721DA6E7C516C6F70
:104788006D6B010E6C27000E6D236C516625E96E6A
:104798006D516721EA6EEF5078197919DF6E7C51F7
:1047A8006A6F6B6B020E6A27000E6B236A516625CF
:1047B800D96E6B516721DA6E7C516C6F6D6B020E8E
:1047C8006C27000E6D236C516625E96E6D516721CB
:1047D800EA6EEF5078197B19DF6E7C516A6F6B6B4C
:1047E800030E6A27000E6B236A516625D96E6B513A
:1047F8006721DA6E7C516C6F6D6B020E6C27000EB0
:104808006D236C516625E96E6D516721EA6EEF5094
:104818006E6F7C516F6F706B010E6F27000E7023E7
:104828006F516625E96E70516721EA6EEF50716F1E
:104838007C516625E96E000E6721EA6EEF5071190A
:104848006E197819DF6E040E7C27DCD668C060F01C
:1048580069C061F00EEC2AF0000E00017C6F0F0EAB
:104868007C6501D016D07C51010DF3506825D96EB6
:10487800F4506921DA6EDF506A6F7C51010DF350F4
:104888006625D96EF4506721DA6E6A51DF1A7C2BDF
:10489800E6D7010133073351D8B412007DD60A0E8A
:1048A800E126000EE222FF0E506EFF0E516EFF0E43
:1048B800526EFF0E536EFA0E50C0E3FFFB0E51C04E
:1048C800E3FFFC0E52C0E3FFFD0E53C0E3FFFF0EF3
:1048D800E36AFE0EE36AFE0EE3500E0D040EF324A7
:1048E800D96E040EF420DA6EDE04D8A4ADD0FE0E24
:1048F800E3500E0D080EF324D96E040EF420DA6E80
:10490800DE50DE10DE10DE10D8B49ED0FE0EE3506E
:104918000E0D080EF324D96E040EF420DA6EDE5064
:104928000201CC5DDE50CD59DE50CE59DE50CF5954
:10493800D8B02FD0FE0EE3500E0D080EF324D96E1A
:10494800040EF420DA6EDECF50F0DECF51F0DECF69
:1049580052F0DECF53F0CC51505C4C6ECD515158D3
:104968004D6ECE5152584E6ECF5153584F6EFE0E6B
:10497800E3500E0D080EF324D96E040EF420DA6EFF
:104988004CC0DEFF4DC0DEFF4EC0DEFF4FC0DEFF75
:104998000DD0FE0EE3500E0D080EF324D96E040E52
:1049A800F420DA6EDE6ADE6ADE6ADD6AFE0EE35045
:1049B8000E0D080EF324D96E040EF420DA6EFA0EEA
:1049C800E3CF48F0DE50485CFB0EE3CF48F0DE5002
:1049D8004858FC0EE3CF48F0DE504858FD0EE3CFB0
:1049E80048F0DE504858D8A02FD0FE0EE3500E0DE8
:1049F800080EF324D96E040EF420DA6EDE50DE10B1
:104A0800DE10DE10D8B420D0FE0EE3500E0D080ED6
:104A1800F324D96E040EF420DA6EDECF50F0DECF28
:104A280051F0DECF52F0DECF53F0FA0E50C0E3FF64
:104A3800FB0E51C0E3FFFC0E52C0E3FFFD0E53C056
:104A4800E3FFFF0EE36AE32AFE0EE32AFE0EE3CF3E
:104A580048F00F0E48643FD7FF0EE304D8A49DD05A
:104A6800E150FA0FD96EE250DA6EFF0EDA22DECF8D
:104A7800CCF2DECFCDF2DECFCEF2DECFCFF2FD0E1E
:104A8800E3500EE1FA0EE328FB0EE3CF48F0FF0EE9
:104A9800485AFC0EE3CF48F00F0E485AD8A02BD046
:104AA800E150FA0FD96EE250DA6EFF0EDA22DECF4D
:104AB80060F0DECF61F0DECF62F0DECF63F07D0E16
:104AC8000001646F000E656F000E666F000E676F61
:104AD800AEEC50F060C050F061C051F062C052F0CE
:104AE80063C053F00C0ED8905036513652365336B8
:104AF800E82EF9D72FD0FA0EE3CF50F0FB0EE3CF14
:104B080051F0FC0EE3CF52F0FD0EE3CF53F00C0E44
:104B1800D8905036513652365336E82EF9D750C011
:104B280060F051C061F052C062F053C063F07D0E76
:104B38000001646F000E656F000E666F000E676FF0
:104B4800AEEC50F060C050F061C051F062C052F05D
:104B580063C053F0F60E50C0E3FFF70E51C0E3FFF9
:104B6800F80E52C0E3FFF90E53C0E3FFE150F60F11
:104B7800D96EE250DA6EFF0EDA22DECF6DF0DECFAC
:104B88006EF0DECF6FF0DECF70F00201ED51D5ECA4
:104B98005AF00201ED515AEC4DF0F50EE126FF0EE8
:104BA800E2221200000E0001B56FB0C0B6F0B1C02D
:104BB800B7F05AD10201AB51020D040E0001B36FD8
:104BC800020EB46FA80EB327000EB423F350B32718
:104BD800F450B423010EB325D96E000EB421DA6E59
:104BE8000201DF90AB51020D040E0001B36F020EFB
:104BF800B46FA80EB327000EB423F350B327F450B4
:104C0800B423010EB325D96E000EB421DA6E020169
:104C1800DF92AB51020D040E0001B36F020EB46FA8
:104C2800A80EB327000EB423F350B327F450B423CF
:104C3800010EB325D96E000EB421DA6E0201DF949D
:104C4800AB51020D040E0001B36F020EB46FA80E33
:104C5800B327000EB423F350B327F450B423010E46
:104C6800B325D96E000EB421DA6E0201DF96AB517E
:104C7800020D040E0001B36F020EB46FA80EB32725
:104C8800000EB423F350B327F450B423010EB32518
:104C9800D96E000EB421DA6E0201DF98AB51020D15
:104CA800040E0001B36F020EB46FA80EB327000EF6
:104CB800B423F350B327F450B423010EB325D96EAF
:104CC800000EB421DA6E0201DF9AAB51020D040E18
:104CD8000001B36F020EB46FA80EB327000EB42301
:104CE800F350B327F450B423010EB325D96E000E48
:104CF800B421DA6E0201DF9CAB51020D040E0001F3
:104D0800B36F020EB46FA80EB327000EB423F3508E
:104D1800B327F450B423010EB325D96E000EB42185
:104D2800DA6E0201DF9EB6C0D9FFB7C0DAFFAB5119
:104D3800020DAC0EF324E96E020EF420EA6EDFCF0A
:104D4800EFFF64D0B6C060F0B7C061F05EEC5CF015
:104D580060C0B6F061C0B7F04DD0B6C06FF0B7C054
:104D680070F051EC27F06FC0B6F070C0B7F06CD09F
:104D7800B6C060F0B7C061F0F1EC57F060C0B6F0B3
:104D880061C0B7F061D0B6C0A6F0B7C0A7F016EC06
:104D980030F0A6C0B6F0A7C0B7F056D0B6C060F0E5
:104DA800B7C061F0D0EC62F060C0B6F061C0B7F097
:104DB8004BD0B6C0A6F0B7C0A7F0AAEC2CF0A6C09E
:104DC800B6F0A7C0B7F040D0B6C075F0B7C076F05F
:104DD8006AEC5EF075C0B6F076C0B7F035D0010E5B
:104DE8000001B56FB251010DF350B025B66FF45004
:104DF800B121B76F0201AB51020DAC0EF324D96E8D
:104E0800020EF420DA6EFF0EDF6E1ED0B6C0D9FF98
:104E1800B7C0DAFF0001B64BB72BDF50020AD8B48F
:104E280091D7010AD8B499D7070AD8B4A1D7010AEB
:104E3800D8B4A9D7030AD8B4B1D7010AD8B4B9D716
:104E48000F0AD8B4C1D7CBD70201AB51020DAC0EB3
:104E5800F324D96E020EF420DA6EDE28D8B404D01A
:104E6800100EAB6101D0AB2B0001B251010DB0C0E7
:104E7800B3F0B1C0B4F0F350B327F450B423B35136
:104E8800B65DB451B759D8B003D0B551D8B492D69D
:104E9800B6C0B0F0B7C0B1F012006FC0D9FF70C093
:104EA800DAFFDF500F0B0001756F6FC0D9FF70C0BC
:104EB800DAFFDF50716F71390F0B0F0B786F6F4B83
:104EC800702B6FC0D9FF70C0DAFFDECF73F0DDCF73
:104ED80074F0020E6F256F6F000E7021706F6FC037
:104EE80076F070C077F06F4B702B020106ADEFD0F3
:104EF80076C0D9FF77C0DAFF0001DF38070BCBECAB
:104F08005FF00009D8A421D073C060F074C061F0CC
:104F180008EC56F00009D8A418D00201AB51020DD4
:104F2800040E0001716F020E726FA80E7127000E39
:104F38007223F3507127F4507223010E7125D96E34
:104F4800000E7221DA6E0201DF800001785126EC32
:104F580061F00009D8A422D00201EF510001785D68
:104F6800D8A01CD078510201F05DD8A017D0AB5161
:104F7800020D040E0001716F020E726FA80E7127E8
:104F8800000E7223F3507127F4507223010E71251D
:104F9800D96E000E7221DA6E0201DF8200017551AE
:104FA80003EC5EF00009D8A418D00201AB51020D41
:104FB800040E0001716F020E726FA80E7127000EA9
:104FC8007223F3507127F4507223010E7125D96EA4
:104FD800000E7221DA6E0201DF840201AB51020D6C
:104FE800040E0001716F020E726FA80E7127000E79
:104FF8007223F3507127F4507223010E7125D96E74
:10500800000E7221DA6E0201DFA4A6D0AB51020DA8
:10501800040E0001716F020E726FA80E7127000E48
:105028007223F3507127F4507223010E7125D96E43
:10503800000E7221DA6E0201DFA28ED0AB51020D92
:10504800040E0001716F020E726FA80E7127000E18
:105058007223F3507127F4507223010E7125D96E13
:10506800000E7221DA6E0201DFA076D073C06CF0F8
:1050780074C06DF076C0D9FF77C0DAFF0001DF3861
:10508800070B6E6FB3EC60F000017551C6EC62F06F
:105098000201078900017851CBEC62F076C0D9FF94
:1050A80077C0DAFF0001DF500F0B0009D8A402D047
:1050B800000E09D076C0D9FF77C0DAFF0001DF50B3
:1050C8000F0B716F71050201DA6F078B45D0AB5179
:1050D800020D040E0001716F020E726FA80E712787
:1050E800000E7223F3507127F4507223010E7125BC
:1050F800D96E000E7221DA6E0201DF90AB51020DFB
:10510800040E0001716F020E726FA80E7127000E57
:105118007223F3507127F4507223010E7125D96E52
:10512800000E7221DA6E0201DF92AB51020D040EFD
:105138000001716F020E726FA80E7127000E7223A4
:10514800F3507127F4507223010E7125D96E000EA9
:105158007221DA6E0201DF946FC06FF070C070F0D8
:1051680012000B0E0001AA6F01016B510001AB6F19
:1051780001016C510001AC6FAD6BAE6BD890AB35D3
:10518800AF6FAC35B06FAD35B16FAE35B26FAF1F25
:10519800B01FB11FB21FAF2B000EB023B123B22333
:1051A800030EB36F08C1B4F009C1B5F00AC1B6F077
:1051B8000BC1B7F0B36701D007D0B735B733B633F3
:1051C800B533B433B32FF6D70001AF51B4259A6F76
:1051D800B051B5219B6FB151B6219C6FB251B72127
:1051E8009D6F21EE6DF0DECF9EF0DDCF9FF0000EBB
:1051F8009FBFFF0EA06FA16F1BEC57F00001AA67BD
:1052080001D007D09D359D339C339B339A33AA2F09
:10521800F5D79AC0BDF09BC0BEF09CC0BFF09DC042
:10522800C0F00C0E0001AA6F01016B510001AB6FB9
:1052380001016C510001AC6FAD6BAE6BAB1FAC1FC5
:10524800AD1FAE1FAB2B000EAC23AD23AE23040E57
:10525800AF6F08C1B0F009C1B1F00AC1B2F00BC11B
:10526800B3F0AF6701D007D0B335B333B233B1333E
:10527800B033AF2FF6D70001AB51B0259A6FAC51C0
:10528800B1219B6FAD51B2219C6FAE51B3219D6F7F
:1052980001016B510001B46F01016C510001B56F40
:1052A800B66BB76BB41FB51FB61FB71FB42B000E74
:1052B800B523B623B723040EB86F08C1B9F009C1E6
:1052C800BAF00AC1BBF00BC1BCF0B86701D007D077
:1052D800BC35BC33BB33BA33B933B82FF6D700016A
:1052E800B451B9259E6FB551BA219F6FB651BB21F4
:1052F800A06FB751BC21A16F1BEC57F00001AA6742
:1053080001D007D09D359D339C339B339A33AA2F08
:10531800F5D79AC0C9F09BC0CAF09CC0CBF09DC01D
:10532800CCF00E0E0001AA6FC9C09AF0CAC09BF05B
:10533800CBC09CF0CCC09DF021EE6FF0DECF9EF08C
:10534800DDCF9FF0000E9FBFFF0EA06FA16F1BEC7B
:1053580057F00001AA6701D007D09D359D339C33D3
:105368009B339A33AA2FF5D79AC0C1F09BC0C2F0DD
:105378009CC0C3F09DC0C4F00001C151BD2501010E
:10538800006F0001C251BE210101016F0001C3512C
:10539800BF210101026F0001C451C0210101036F47
:1053A80000C19AF001C19BF002C19CF003C19DF0BD
:1053B800050E00019E6F000E9F6F000EA06F000E7D
:1053C800A16F1BEC57F0800E00019A25AA6F000E02
:1053D8009B21AB6F000E9C21AC6F000E9D21AD6F21
:1053E800ABC0AAF0ACC0ABF0ADC0ACF0AD6BACBF1D
:1053F800AD69AAC0C5F0ABC0C6F0ACC0C7F0ADC0BF
:10540800C8F0C5C0A6F0C6C0A7F0C7C0A8F0C8C0FD
:10541800A9F01200000120EE0DF06051D92661516B
:10542800DA22DF50626F6251010D3F0EF324F66EEF
:10543800FD0EF420F76EF86A000EF8220800F5CF8A
:1054480063F060C0D9FF61C0DAFF6351DF1A20EE54
:105458000EF06051D9266151DA22DF50626F625135
:10546800010D3F0EF324F66EFD0EF420F76EF86A78
:10547800000EF8220800F5CF63F020EE01F060512D
:10548800D9266151DA226351DF1A20EE0FF06051FC
:10549800D9266151DA22DF50626F6251010D3F0E49
:1054A800F324F66EFD0EF420F76EF86A000EF8226B
:1054B8000800F5CF63F020EE02F06051D926615163
:1054C800DA226351DF1A20EE0CF06051D9266151BF
:1054D800DA22DF50626F6251010D3F0EF324F66E3F
:1054E800FD0EF420F76EF86A000EF8220800F5CFDA
:1054F80063F020EE03F06051D9266151DA2263513E
:10550800DF1A60C0D9FF61C0DAFF4650DF1A7F0E8C
:1055180046640CD01B0E46C062F0636BD8906237AD
:1055280063376219646F6351656F05D0D89046344C
:10553800646F656B653764C046F060C0D9FF61C0B1
:10554800DAFFDF50626F20EE04F06051D926615116
:10555800DA226251DF1A20EE01F06051D92661513A
:10556800DA22DF50626F20EE05F06051D9266151D2
:10557800DA226251DF1A20EE02F06051D926615119
:10558800DA22DF50626F20EE06F06051D9266151B1
:10559800DA226251DF1A20EE03F06051D9266151F8
:1055A800DA22DF50626F20EE07F06051D926615190
:1055B800DA226251DF1A20EE04F06051D9266151D7
:1055C800DA22DF50626F20EE08F06051D92661516F
:1055D800DA226251DF1A20EE05F06051D9266151B6
:1055E800DA22DF50626F20EE09F06051D92661514E
:1055F800DA226251DF1A20EE06F06051D926615195
:10560800DA22DF50626F20EE0AF06051D92661512C
:10561800DA226251DF1A20EE07F06051D926615173
:10562800DA22DF50626F20EE0BF06051D92661510B
:10563800DA226251DF1A20EE08F06051D926615152
:10564800DA22DF50626F20EE0CF06051D9266151EA
:10565800DA226251DF1A20EE09F06051D926615131
:10566800DA22DF50626F20EE0DF06051D9266151C9
:10567800DA226251DF1A20EE0AF06051D926615110
:10568800DA22DF50626F20EE0EF06051D9266151A8
:10569800DA226251DF1A20EE0BF06051D9266151EF
:1056A800DA22DF50626F20EE0FF06051D926615187
:1056B800DA226251DF1A120000018C6F6D0E0001B0
:1056C8008C65AFD0000E716F030E706F000E696F9E
:1056D8000A0E686F000E636F640E626F8CC060F014
:1056E800616B62EC52F060C066F061C067F028EC54
:1056F80050F0090E000166256E6F000E67216F6F6E
:105708007EEC5EF08E0E00016E25F66EFE0E6F21A9
:10571800F76EF86A000EF8220900F5CF77F0090055
:10572800F5CF78F00A00F5CF79F0000E696F640EB6
:10573800686F8CC066F0676B28EC50F0120E0001A1
:1057480066256E6F000E67216F6F000E716F030E76
:10575800706F7EEC5EF08E0E00016E25F66EFE0E0A
:105768006F21F76EF86A000EF8220900F5CF74F081
:105778000900F5CF75F00A00F5CF76F054EC45F046
:1057880074C089F075C08AF076C08BF0000E0001F5
:10579800716F030E706F000E636F0A0E626F8CC01C
:1057A80060F0616B62EC52F060C06EF061C06FF047
:1057B8007EEC5EF08E0E00016E25F66EFE0E6F21F9
:1057C800F76EF86A000EF8220900F5CF77F00900A5
:1057D800F5CF78F00A00F5CF79F089C074F08AC067
:1057E80075F08BC076F054EC45F074C086F075C047
:1057F80087F076C088F086C074F087C075F088C0DE
:1058080076F0000E0001776F000E786F3F0E796F0B
:1058180054EC45F074C083F075C084F076C085F010
:1058280012000A0E00018C656DD0000E716F030E18
:10583800706F000E636F0A0E626F8CC060F0616B50
:1058480062EC52F060C06EF061C06FF07EEC5EF00A
:105858008E0E00016E25F66EFE0E6F21F76EF86A49
:10586800000EF8220900F5CF77F00900F5CF78F09F
:105878000A00F5CF79F0000E696F0A0E686F8CC0C8
:1058880066F0676B28EC50F0090E000166256E6F14
:10589800000E67216F6F000E716F030E706F7EEC44
:1058A8005EF08E0E00016E25F66EFE0E6F21F76E0D
:1058B800F86A000EF8220900F5CF74F00900F5CF58
:1058C80075F00A00F5CF76F054EC45F074C089F015
:1058D80075C08AF076C08BF089C074F08AC075F004
:1058E8008BC076F0000E0001776F000E786F3F0EC8
:1058F800796F54EC45F074C083F075C084F076C0BD
:1059080085F0120000018C51030D8E0EF324F66E03
:10591800FE0EF420F76EF86A000EF8220900F5CFA3
:1059280074F00900F5CF75F00A00F5CF76F0000E97
:10593800776F000E786F3F0E796F54EC45F074C0A6
:1059480083F075C084F076C085F01200000E000167
:10595800AB6F000EAC6F000EAD6F000EAE6FA6C041
:10596800D9FFA7C0DAFFDF50AF6FA64BA72BA6C0A1
:10597800D9FFA7C0DAFFFF0EDE14AB6FFF0EDE14EF
:10598800AC6FFF0EDE14AD6F000EDE14AE6FABC051
:105998009AF0ACC09BF0ADC09CF0AEC09DF0640E18
:1059A8009E6F000E9F6F000EA06F000EA16F1BEC84
:1059B80057F09AC0ABF09BC0ACF09CC0ADF09DC056
:1059C800AEF0030E0001A625A66F000EA721A76F53
:1059D800A6C0D9FFA7C0DAFFDF50AA6FA64BA72B36
:1059E800000E606FAF51F3EC5EF00009D8A44BD005
:1059F800ABC060F0ACC061F0ADC062F0AEC063F0A7
:105A080081EC54F00009D8B407D00001AB51AC11B7
:105A1800AD11AE11D8A418D00201AB51020D040E7D
:105A28000001A86F020EA96FA80EA827000EA923CF
:105A3800F350A827F450A923010EA825D96E000E0B
:105A4800A921DA6E0201DF8E0001AA51C3EC59F0D8
:105A58000009D8A418D00201AB51020D040E0001B0
:105A6800A86F020EA96FA80EA827000EA923F3504D
:105A7800A827F450A923010EA825D96E000EA92144
:105A8800DA6E0201DF8C0201AB51020D040E000137
:105A9800A86F020EA96FA80EA827000EA923F3501D
:105AA800A827F450A923010EA825D96E000EA92114
:105AB800DA6E0201DFAE7DD0AB51020D040E00019B
:105AC800A86F020EA96FA80EA827000EA923F350ED
:105AD800A827F450A923010EA825D96E000EA921E4
